:100000000C94DB000C9403010C9403010C94030189
:100010000C9403010C9403010C9403010C94030150
:100020000C9403010C9403010C9417080C9486089B
:100030000C9403010C9403010C9403010C94030130
:100040000C9403010C9403010C9403010C94030120
:100050000C9403010C9403010C9403010C94B80A52
:100060000C9403010C9403010C9403010C94030100
:100070000C9403010C9403010C9403010C940301F0
:100080000C9403010C9403010C9403010C940301E0
:100090000C94020B0C9403010C9403010C940301C7
:1000A0000C9403010C9403010C940301070605044E
:1000B0000100080A0B0C0D090000000024002700B5
:1000C0002A002D00300000000000250028002B0031
:1000D0002E003100000000002300260029002C0023
:1000E0002F000404040404030405020202020403B2
:1000F00002020202060606060606040402020204C2
:100100000404080201104080401020408040800814
:100110000204018040201002011080102040402085
:100120000000000200090F0000030401000C0000A1
:1001300000000000000000000000000000000008B7
:100140000B0002020200000904000001020200008C
:1001500005240010010524010101042402060524E0
:100160000600010705810310004009040100020A8E
:10017000000000070502024000000705830240005E
:10018000000403090412010002EF0201404123367A
:100190008000010102030141726475696E6F204C99
:1001A0004C430041726475696E6F204C656F6E61DF
:1001B00072646F00210C11241FBECFEFDAE0DEBFA6
:1001C000CDBF11E0A0E0B1E0E2E1F2E202C00590B3
:1001D0000D92A238B107D9F722E0A2E8B1E001C040
:1001E0001D92A03DB207E1F710E0CBEDD0E004C0D6
:1001F0002197FE010E940111CA3DD107C9F70E9453
:10020000610C0C9407110C940000982F2091580257
:1002100081E0213208F043C0809134028111FCCF8B
:100220008091570232E030933402909333029FEF73
:10023000909332021092310220933002A7E3B2E091
:10024000E0E1F2E090E0291331C010920F029091AA
:100250000F02880F892B80930F0280910E0281304C
:1002600049F510920E0280910F028093BB0080919D
:10027000BC0083FDF8CF85EC8093BC0080913402F4
:100280008230E1F3809132028F3FB1F080913202EF
:100290008032A1F080913202803391F084E010929C
:1002A0003602109258021092350208953D91319312
:1002B0009F5FC9CF85EEE0CF80E0F1CF82E0EFCF46
:1002C00083E0EDCFFC0180910D02882311F13FB74F
:1002D000F89482E08093E9002091F200822F90E070
:1002E0001816190614F481E090E0882339F0289854
:1002F00044E640930C024091F1004083222339F000
:100300002091F200211103C02BE62093E8003FBFAB
:1003100008958FEF9FEF08952FB7F89483E08093AF
:10032000E9009091E800892F807295FF04C09091B8
:10033000F20080E4891B2FBF08958091040281118F
:100340000DC082E08093000284E08093010210924D
:1003500003021092020281E08093040280E092E0A6
:100360000895CF93DF931F92CDB7DEB76983DC0189
:10037000ED91FC910280F381E02D41E050E0BE015F
:100380006F5F7F4F09950F90DF91CF91089583E0C4
:100390008093E9008091F200882319F08AE380932A
:1003A000E80008950E948C0190E00895CF93DF93B8
:1003B0001F92CDB7DEB7FC018485958597FD08C0F7
:1003C0002FEF3FEF358724870F90DF91CF9108956E
:1003D000CE0101960E946201019719F4898190E093
:1003E000F3CF8FEF9FEFF0CF0F931F93CF93DF9358
:1003F0001F92CDB7DEB78C01FC018485958597FFF0
:100400000BC0CE0101960E946201019771F48981AF
:1004100090E0F80195878487F801848595850F9091
:10042000DF91CF911F910F9108958FEF9FEFF1CF43
:10043000FC018485958597FD0BC09FB7F89482E0F9
:100440008093E9008091F2009FBF90E001960895AB
:100450009FB7F89482E08093E9008091F2009FBFFB
:1004600090E008954091FA015091FB012091F8012C
:100470003091F90142175307B4F49091E800957058
:10048000E1F39091E80092FD19C08093F100809112
:10049000FA019091FB0101968F739927892B19F42A
:1004A0008EEF8093E8008091FA019091FB01019614
:1004B0009093FB018093FA0181E0089580E0089514
:1004C000EF92FF920F931F93CF93DF93F82E192F84
:1004D000E62E042F81E0860F880F0E94320283E00F
:1004E0000E943202CF2DD12FEC0EFD2EF11CCE1525
:1004F000DF05B9F007FF13C0FE0184910E943202AC
:10050000182F80E00E943202812321968111EFCFC3
:10051000DF91CF911F910F91FF90EF900895888107
:10052000EDCF81E0F5CFDF92EF92FF920F931F9313
:10053000CF93DF93D82E8A01EB017B01E40EF51EE9
:10054000CE15DF0559F0D7FE12C0FE0184910E943E
:10055000320221968111F4CF0FEF1FEFC801DF9116
:10056000CF911F910F91FF90EF90DF9008958881B8
:10057000EECF0F931F93CF93DF931F92CDB7DEB7CC
:1005800082E0898342E450E06FE371E080E80E94FA
:1005900093020E949D01DC0112960D911C910115A0
:1005A000110589F0D801ED91FC910280F381E02DD5
:1005B000BE016F5F7F4FC801099597FD04C0F80128
:1005C00000851185ECCF89810F90DF91CF911F912C
:1005D0000F910895615030F02091F100FC012083CB
:1005E0000196F8CF289884E680930C020895089528
:1005F0000895AF92BF92CF92DF92EF92FF920F9346
:100600001F93CF93DF936C017B018B01040F151FA8
:10061000EB015E01AE18BF08C017D10759F0699110
:10062000D601ED91FC910190F081E02DC601099574
:10063000892B79F7C501DF91CF911F910F91FF9021
:10064000EF90DF90CF90BF90AF90089581508F30A2
:1006500008F047C0E82FF0E0E05DFC4F0C9401117A
:100660004D0351033F0345034903710371037103B4
:1006700054035A035E036203680371036C038091A1
:1006800080008F77809380000895809180008F7D17
:10069000F9CF80918000877FF5CF84B58F7784BDB7
:1006A000089584B58F7DFBCF809190008F778093E4
:1006B00090000895809190008F7DF9CF80919000F7
:1006C000877FF5CF8091C0008F778093C000089519
:1006D0008091C0008F7DF9CF8091C200877F809389
:1006E000C2000895CF93DF93282F30E0F901E05E38
:1006F000FE4F8491F901EF5FFE4FD491F901EE5165
:10070000FF4FC491CC23A1F081110E942603EC2F4E
:10071000F0E0EE0FFF1FEC52FF4FA591B491EC916A
:10072000ED2381E090E009F480E0DF91CF9108951E
:1007300080E090E0FACF1F93CF93DF93282F30E033
:10074000F901E05EFE4F8491F901EF5FFE4FD49115
:10075000F901EE51FF4FC491CC23A9F0162F81115E
:100760000E942603EC2FF0E0EE0FFF1FEA53FF4F2D
:10077000A591B4918FB7F894EC91111108C0D09560
:10078000DE23DC938FBFDF91CF911F910895DE2B85
:10079000F8CFCF93DF9390E0FC01EF5FFE4F249101
:1007A0008E519F4FFC0184918823D1F090E0880FF7
:1007B000991FFC01E854FF4FA591B491FC01EA5345
:1007C000FF4FC591D49161110EC09FB7F8948C91E1
:1007D000E22FE0958E238C932881E223E8839FBF4C
:1007E000DF91CF9108958FB7F894EC91E22BEC93C1
:1007F0008FBFF6CF823108F08251E82FF0E0E45548
:10080000FF4FE49190917B008E2F880F880F8072AC
:100810009F7D892B80937B00E770E064E0937C00F0
:1008200080917A00806480937A0080917A0086FDBE
:10083000FCCF809178009091790008953FB7F894AB
:100840008091EA019091EB01A091EC01B091ED0152
:1008500026B5A89B05C02F3F19F00196A11DB11D1B
:100860003FBFBA2FA92F982F8827BC01CD01620F57
:10087000711D811D911D42E0660F771F881F991F12
:100880004A95D1F708958F929F92AF92BF92CF92DF
:10089000DF92EF92FF924B015C010E941E046B01FC
:1008A0007C010E941E046C197D098E099F09683E17
:1008B000734081059105A8F321E0821A9108A108EF
:1008C000B10888EEC80E83E0D81EE11CF11C81142B
:1008D0009104A104B10429F7FF90EF90DF90CF902D
:1008E000BF90AF909F908F9008958F929F92AF92FC
:1008F000BF92CF92DF92EF92FF920F931F93CF930D
:10090000DF936C017B018A0180910B01882309F43C
:100910005CC080910D02882309F457C08091FF01CB
:1009200080FF05C08091E00082608093E000E801D4
:10093000B12C8AEFA82E93E0892E2AE3922E2097DD
:1009400011F4BB20D9F10E948C0181110AC0AA9434
:10095000AA20D9F161E070E080E090E00E944304B9
:10096000EECF8C171D0611F00CF08C2F9FB7F8946A
:100970008092E9002091E80025FD02C09FBFDFCFF3
:10098000282F30E0C21BD30BF701815020F041919A
:100990004093F100FACFE20EF31EBB2021F09092BB
:1009A000E800B12CEBCF8091E80085FDE7CF909275
:1009B000E800BB24B394209709F3F3CF5D9884E655
:1009C0008093FE01101611063CF081E090E0F601E4
:1009D0009383828310E000E0C801DF91CF911F91E3
:1009E0000F91FF90EF90DF90CF90BF90AF909F90CE
:1009F0008F90089585ED8093BC008091BC0084FDAC
:100A0000FCCF1092340208952091C201260F3327A3
:100A1000331F21323105ECF420913402FC0190E0C7
:100A200080E0243069F082E00895A091C201219114
:100A3000AC014E555E4FA40FB52FB11D2C930196FE
:100A4000861798F38091C201680F6093C20180E01D
:100A5000089581E008950895E091F3018091F201F5
:100A6000E81730F4F0E0EE57FE4F808190E00895F3
:100A70008FEF9FEF08959091F3018091F2012FEF96
:100A80003FEF981748F4E92FF0E0EE57FE4F208132
:100A900030E09F5F9093F301C90108958091F201C6
:100AA0009091F301891B990B0895CF92DF92EF92F9
:100AB000FF920F931F93CF93DF937C01CB018A01A9
:100AC00020913502222389F0EB016B01C40ED51E63
:100AD000CC15DD0569F06991D701ED91FC9101908C
:100AE000F081E02DC7010995F3CF642F0E94040522
:100AF000C801DF91CF911F910F91FF90EF90DF9090
:100B0000CF900895CF93DF931F92CDB7DEB769835F
:100B1000209135022223F9F020915802203258F01A
:100B200021E030E0FC013383228390E080E00F90ED
:100B3000DF91CF91089580913602E82FF0E0E95CD3
:100B4000FD4F998190838F5F809336028093580286
:100B500081E090E0ECCF61E0CE0101960E940405B7
:100B6000F7CFCF93C42FFC018081806291E09093F6
:100B7000350280935702109236021092580289EA89
:100B800092E00E9482056C2F89EA92E00E94820521
:100B900081E0CF910C940501089590E080E00895E4
:100BA000FC0101900020E9F73197AF01481B590B78
:100BB000BC0185EB92E00C94F902CF93DF93EC013A
:100BC0008881806291E09093350280935702109261
:100BD00036021092580289EA92E00E94820581E072
:100BE0000E940501809134028111FCCF888191E03F
:100BF00090933402909333022FEF2093320210929D
:100C000031021092300290930F0290910F02806295
:100C1000880F892B80930F0280910E02813051F54D
:100C200010920E0280910F028093BB008091BC0055
:100C300083FDF8CF85EC8093BC0080913402813035
:100C4000E1F38091310291E0811102C09091310273
:100C5000A0E1B2E0E2E8F1E080E089130DC010927B
:100C6000F3018093F20189EA92E00E943B05DF9153
:100C7000CF91089585EEDFCF2D9121938F5FEDCF3A
:100C80001F93CF93DF93EC01162F60E00E94DD05E8
:100C900041E050E001C0440F1A95EAF7409548231F
:100CA00060E0CE01DF91CF911F910C94B105FC0162
:100CB000962F818D8F3F31F0683058F4CF014A96DE
:100CC0000C94400685898F3F21F461E0892F0C94B4
:100CD000C9030895EF92FF920F931F93CF93DF9371
:100CE000EC01162F042F898D8F3FF1F0683008F04A
:100CF00053C06A9669E0CE010E94DD0541E050E0F4
:100D000001C0440F1A95EAF7013059F4482B69E005
:100D1000CE01DF91CF911F910F91FF90EF900C9436
:100D2000B10540954823F3CF8D898F3F91F1288DF0
:100D300081E090E001C0880F6A95EAF7413031F513
:100D4000822B888F60E08F890E949B03088DFD882D
:100D5000EE8818E0602F661F6627661F8E2D0E94A2
:100D60009B03000F61E08F2D0E949B0360E08F2D9D
:100D70000E949B03115071F761E08F89DF91CF9141
:100D80001F910F91FF90EF900C949B03809582230D
:100D9000D8CF642F812FF2CFDF91CF911F910F9188
:100DA000FF90EF900895CF93DF93EC0140E06E81C8
:100DB0000E946A0641E06E81CE010E946A0640E010
:100DC0006E81CE010E946A068BE891E00197F1F7EF
:100DD000DF91CF910895CF92DF92EF92FF920F9320
:100DE0001F93CF93DF938C01FC01818DE80127963F
:100DF000C62ED12CF12CE12C8F3F09F45FC0780175
:100E0000FAE1EF0EF11C69E0C7010E94DD05FE0169
:100E100070E060E0C1E0D0E091919E01092E01C038
:100E2000220F0A94EAF720958223A601062E02C01B
:100E3000559547950A94E2F74170552701C0440F34
:100E40009A95EAF7842B6F5F7F4F6430710521F725
:100E5000F80196819E0101C0220F9A95EAF7D22EE1
:100E6000D094D8224D2D69E0C7010E94B105F80148
:100E70008681AE0101C0440F8A95EAF7D42A4D2D30
:100E800069E0C7010E94B105F801868101C0CC0F5D
:100E90008A95EAF7C0954C2F4D2169E0C7010E9461
:100EA000B1058BE891E00197F1F7DF91CF911F91A8
:100EB0000F91FF90EF90DF90CF9008956991C80156
:100EC0000E945706A6010E2C02C0559547950A941C
:100ED000E2F74170FE0131976081C8010E946A0605
:100EE000FFEFEF1AFF0A84E0E816F10439F7C801B2
:100EF000DF91CF911F910F91FF90EF90DF90CF90F6
:100F00000C94D306CF92DF92EF92FF920F931F9330
:100F1000CF93DF93EC01F62E6C810E946A066D81FF
:100F20006F3F21F040E0CE010E946A060F2D10E0D5
:100F30008F8584FF2CC06E0187E0C80ED11CF12C78
:100F4000E12CF60161916F01CE010E945706A801C4
:100F50000E2C02C0559547950A94E2F74170F601B0
:100F600031976081CE010E946A06FFEFEF1AFF0AF7
:100F700088E0E816F10429F7CE01DF91CF911F91A7
:100F80000F91FF90EF90DF90CF900C94D306B801B3
:100F900084E0759567958A95E1F7CE010E94EB068E
:100FA0006F2DCE01DF91CF911F910F91FF90EF90A8
:100FB000DF90CF900C94EB0640E0682F85EB92E039
:100FC0000C948207CF93DF93CDB7DEB728970FB687
:100FD000F894DEBF0FBECDBF98E0ECE0F1E0DE019B
:100FE000119601900D929A95E1F79091C80296178B
:100FF00008F46FEF70E0660F771F21E030E02C0FF0
:101000003D1F620F731FFB019081890F8068289636
:101010000FB6F894DEBF0FBECDBFDF91CF910C9419
:10102000DC0741E00E94820781E090E008951F9272
:101030000F920FB60F9211248F939F938091E1002E
:101040009091E100937F9093E10083FF0FC0109295
:10105000E90091E09093EB001092EC0092E3909302
:10106000ED0010920D0298E09093F00082FF22C0F4
:1010700093E09093E9009091F200992319F09AE39C
:101080009093E8009091FE01992341F09091FE0128
:1010900091509093FE01911101C05D9A90910C02C4
:1010A000992341F090910C02915090930C02911170
:1010B00001C0289A84FF18C08091E2008E7E816072
:1010C0008093E2008091E1008F7E8093E100809127
:1010D000FF018E7E80618093FF019F918F910F9021
:1010E0000FBE0F901F90189580FFF7CF8091E20000
:1010F0008E7E80618093E2008091E1008E7E8093FD
:10110000E1008091FF018E7E8160E5CF1F920F92FA
:101110000FB60F921124CF92DF92EF92FF920F93AE
:101120001F932F933F934F935F936F937F938F936F
:101130009F93AF93BF93EF93FF93CF93DF93CDB77D
:10114000DEB76C97DEBFCDBF1092E9008091E8005A
:1011500083FF25C068E0CE0145960E94EA0282EF37
:101160008093E8008D8987FF39C09091E80090FF57
:10117000FCCF982F907609F034C19E894F89588D05
:101180002F89F88C911131C0803861F58091FD0173
:101190008093F1001092F1008EEF8093E8006C963E
:1011A0000FB6F894DEBF0FBECDBFDF91CF91FF9198
:1011B000EF91BF91AF919F918F917F916F915F91CF
:1011C0004F913F912F911F910F91FF90EF90DF90E2
:1011D000CF900F900FBE0F901F9018959EEF909399
:1011E000E800C7CF1092F100D5CF913059F48111AA
:1011F000D3CF4130510581F68091FD018D7F8093E1
:10120000FD01CACF933049F48111C6CF4130510559
:1012100019F68091FD018260F2CF953041F4809102
:10122000E80080FFFCCF20682093E300B5CF963024
:1012300009F0A9C00B8D1C8D22E01092E9001092DC
:10124000FB011092FA01F2122EC01092F9011092D5
:10125000F8010E94B9021F8299E09983FA8291E015
:101260009E8390EA98879AEF99872091FA013091AE
:10127000FB01275F3F4F3C832B838D831092E90056
:101280001092FB011092FA011093F9010093F801FA
:1012900049E050E0BE016F5F7F4F80E00E94930203
:1012A0000E94B90279CF1093F9010093F8010E94CE
:1012B0009D01DC0112960D911C910115110509F497
:1012C00051C1D801ED91FC910480F581E02DBE0162
:1012D0006B5E7F4FC8010995009709F03EC1F80188
:1012E00000851185EACFF3E0FF120EC08F898823B5
:1012F00009F440C0823061F440E860E183EA91E0A3
:101300000E946002811148CF81E28093EB0047CFB9
:10131000813029F440E86BE087E991E0F1CF833038
:1013200099F70E949D01DC011296ED90FC908E01D0
:101330000F5F1F4F6801E114F10479F0D701ED91BF
:10134000FC910680F781E02DB801C7010995080FCF
:10135000111DF701E084F184EECFD8011C92F60153
:1013600001900020E9F73197BF016C197D0940E039
:10137000C601C6CF61E871E0FB01449150E080E80E
:101380000E94930209CF973009F4BECF983021F420
:1013900081E08093F10000CF993009F0FDCE837099
:1013A00009F0B2CFE5E1F1E081E031E096E321918F
:1013B000222371F08093E9003093EB00DF01119755
:1013C0002C912093EC009093ED008F5F873079F79C
:1013D0008EE78093EA001092EA008F8980930D02D5
:1013E000DBCE8B8D9C8D1092E9001092FB01109248
:1013F000FA019093F9018093F801898D811192C0CF
:101400008E899D89913A49F4813209F07DCF47E078
:1014100050E064E071E080E0B3CF913209F074CF26
:10142000833269F48F89988DB0E0A0E08093000149
:1014300090930101A0930201B0930301ADCE8032DD
:1014400069F48091E80082FFFCCF67E084E091E0DE
:101450000E94EA028BEF8093E8009ECE823209F070
:101460009BCE8F8980930B01EEEFFFE785919491DE
:101470008B3F9C4D51F1E0E0F8E0809104019091A8
:101480000501A0910601B0910701803B9440A105A0
:10149000B105F1F480910B0180FD1AC0EE3F8AE0A6
:1014A000F80789F587E797E791838083809160004B
:1014B0008093FC0188E19BE00FB6F894A895809397
:1014C00060000FBE9093600067CEEEEFFAE0D5CFDC
:1014D000808191818737974709F05ECEA8958091EA
:1014E00060008861809360008091FC0180936000BF
:1014F000EE3F2AE0F20789F08091FE0A9091FF0A00
:101500009183808349CE808191818737980751F2FA
:101510009093FF0A8093FE0AC5CF1092FF0A1092A3
:10152000FE0A3ACE0E949D01DC0112960D911C919B
:101530000115110509F4E8CED801ED91FC91019057
:10154000F081E02DBE016B5E7F4FC80109958111CE
:1015500023CEF80100851185EBCF181619060CF47F
:101560001BCED2CEF1E0FF12BECE65E871E004CF13
:101570001F920F920FB60F9211242F933F938F93C8
:101580009F93AF93BF938091E6019091E701A09163
:10159000E801B091E9013091E50123E0230F2D37F7
:1015A00058F50196A11DB11D2093E5018093E60138
:1015B0009093E701A093E801B093E9018091EA01DB
:1015C0009091EB01A091EC01B091ED010196A11D6C
:1015D000B11D8093EA019093EB01A093EC01B093CD
:1015E000ED01BF91AF919F918F913F912F910F90FE
:1015F0000FBE0F901F90189526E8230F0296A11D8D
:10160000B11DD2CF1F920F920FB60F9211242F93BC
:101610003F934F935F936F937F938F939F93AF937A
:10162000BF93EF93FF938091B900887F803609F4D0
:101630004AC0F0F5883209F4A7C018F5803109F4E2
:101640009BC0B8F4882309F4F9C0883009F494C029
:10165000FF91EF91BF91AF919F918F917F916F918A
:101660005F914F913F912F910F900FBE0F901F9060
:101670001895883109F488C0803251F7809332027E
:1016800014C0803409F49DC040F48033B9F388332A
:10169000F9F68093320285ECB0C0803509F485C03C
:1016A000883509F496C0883499F60E94FA04D0CFA0
:1016B000883909F48CC038F5883729F050F4883619
:1016C00011F0803729F683E0809334021092E40110
:1016D00057C0883809F47BC0803919F0803809F088
:1016E000B7CF8091E401803208F071C0E091E4014D
:1016F00081E08E0F8093E4018091BB00F0E0EC5319
:10170000FE4F80833DC0803B39F0E0F4803A09F41D
:1017100079C0883A09F09CCF84E08093340210921B
:10172000C3011092C201E091F001F091F10109951D
:101730008091C20181110FC081E08093C20110929B
:10174000A20109C0803C09F4A6CF883C09F4A3CFCC
:10175000883B09F07DCFE091C30181E08E0F80933B
:10176000C301F0E0EE55FE4F80818093BB00909165
:10177000C3018091C20129C080910F028093BB00F8
:1017800085EC8093BC0064CF90913102809130024F
:10179000981758F5E091310281E08E0F8093310265
:1017A000F0E0E05FFD4F8081E9CFE091310281E020
:1017B0008E0F809331028091BB00F0E0E05FFD4F1F
:1017C000808390913102809130029817C8F285E8A9
:1017D000D8CFE091310281E08E0F80933102809169
:1017E000BB00F0E0E05FFD4F808380913302811108
:1017F0005CCF81E080930E0284EA8093BC0010925B
:10180000340226CF85EC8093BC0010923402809184
:10181000E401803230F4E091E401F0E0EC53FE4F5B
:1018200010826091E40170E0E091EE01F091EF012F
:1018300084EC91E009951092E4010ACF10923202F3
:1018400034CFE9E5F2E01382128288EE93E0A0E063
:10185000B0E084839583A683B7832FE131E03183A1
:1018600020832FEF3FEF35872487E9EAF2E01382E8
:10187000128284839583A683B78381E391E0918369
:101880008083E5EBF2E01382128283E491E091839E
:10189000808388E084838FEF858399E0968394E04A
:1018A000978395E0908796E0918797E092871386DB
:1018B000148615861686818F878B868B858B178677
:1018C0000895CF93DF93CDB7DEB7A1970FB6F89405
:1018D000DEBF0FBECDBF789484B5826084BD84B571
:1018E000816084BD85B5826085BD85B5816085BD1B
:1018F00080916E00816080936E00109281008091D3
:10190000810082608093810080918100816080935A
:10191000810080918000816080938000809191009F
:10192000826080939100809191008160809391000A
:10193000809190008160809390008091C1008460CC
:101940008093C1008091C10082608093C10080912A
:10195000C10081608093C1008091C3008160809349
:10196000C3008091C00082608093C0008091C2005B
:1019700081608093C20080917A00846080937A00B5
:1019800080917A00826080937A0080917A008160F1
:1019900080937A0080917A00806880937A00109218
:1019A0000D021092FD011092FF018091D70081601D
:1019B0008093D70080EA8093D80089B5806189BD83
:1019C00089B5826089BD09B400FEFDCF61E070E099
:1019D00080E090E00E9443048091D8008F7C806179
:1019E0008093D8008091E000807F8093E000809118
:1019F000E1008E7E8093E1008DE08093E200559AB5
:101A0000209A60E085E10E94C9038091CE028F3F59
:101A100009F42EC187708093CF021092F3011092C7
:101A2000F20110923602109258021092340211E024
:101A30001093330210920E0261E082E00E949B0339
:101A400061E083E00E949B038091B9008E7F8093C8
:101A5000B9008091B9008D7F8093B90088E48093AC
:101A6000B80085E48093BC0087EF92E09093F10189
:101A70008093F00188EF92E09093EF018093EE0164
:101A80008091CF02806210933502809357021092AA
:101A900036021092580260E089EA92E00E948205C4
:101AA0006FEF89EA92E00E94820560E089EA92E0A5
:101AB0000E94820560E089EA92E00E94820560E06F
:101AC00089EA92E00E94820560E089EA92E00E9441
:101AD000820560E089EA92E00E94820560E089EA7E
:101AE00092E00E94820560E089EA92E00E9482050D
:101AF00060E089EA92E00E94820560E089EA92E073
:101B00000E94820581E00E94050167E08FEC92E06F
:101B10000E94400669E08FEC92E00E94DD05482FAC
:101B2000406869E08FEC92E00E94B1050CEB12E096
:101B300070ECE72E72E0F72EF80161918F0185EBD2
:101B400092E00E945706E016F106B1F76091B902E3
:101B5000683020F48FEC92E00E9440066091BB0256
:101B6000683020F48FEC92E00E9440068091C4021D
:101B700088608093C40282E08093C8021092C902F8
:101B80008BE39DE00197F1F740E06091B90285EBAE
:101B900092E00E946A0640E06091BB0285EB92E011
:101BA0000E946A066091BA026F3F29F040E085EB1F
:101BB00092E00E946A068091C40284FD81C063E0C5
:101BC00085EB92E00E94EB060BE416E4C801019756
:101BD000F1F763E085EB92E00E94EB06C801019704
:101BE000F1F763E085EB92E00E94EB0683E592E07B
:101BF0000197F1F762E085EB92E00E94EB0680919D
:101C0000C40280620E94DC0784E08093C5028CE0FD
:101C10000E94DC0781E00E94DC078BE39FE10197D3
:101C2000F1F782E08093C60286E00E94DC0761E063
:101C30008AE00E949B0360E081E00E94E2078BE45F
:101C400091E00E94D00583E10E94FA039093F7018E
:101C50008093F6018091F6019091F70161E0892B64
:101C600009F444C081E00E94E20789E591E0E9CFF0
:101C70008091CA0261E08F3F91F08091CB020E9477
:101C8000C90361E08091CA020E94C90361E08091AA
:101C9000CC020E94C90380E88093CD0267CF809177
:101CA000B9020E94C9038091BA028F3F19F061E026
:101CB0000E94C90361E08091BB020E94C90356CF14
:101CC00080620E94DC078BE496E40197F1F7809133
:101CD000C40280620E94DC0783E592E00197F1F77D
:101CE0008091C40280620E94DC0789CF80E00E945C
:101CF000E20788E691E00E94D0054BE2C42E41E065
:101D0000D42E5AE0852E912CA12CB12C60E0E62E29
:101D100060E0F62E85E10E947203019709F47AC013
:101D200061E080E00E949B0364E670E080E090E068
:101D30000E94430460E080E00E949B0364EF71E036
:101D400080E090E00E94430483E10E94FA039093B4
:101D5000F7018093F6018C01169507951695079566
:101D600061E08BE00E94C9030115110509F06BC009
:101D700060E08BE00E949B038091F6019091F70157
:101D800096958795969587959093F5018093F401A4
:101D900061E080E00E94E20788E791E00E94D005C0
:101DA00061E086E00E94E2076091F4017091F50124
:101DB00090E080E00E94511023E333E343E250E4DB
:101DC0000E94B00F0E9422107093F5016093F401FD
:101DD0009B0150E040E019A28E010F5D1F4FCA0128
:101DE000B901A50194010E94DF10605DF8016293C2
:101DF0008F01211531054105510589F7309719F0FB
:101E0000CF010E94D005E114F10409F483CF0E94B0
:101E1000000080CF86E10E947203019709F094CF01
:101E200061E080E00E949B0364EF71E080E090E05D
:101E30000E94430461E08BE00E94C90360E08BE0F4
:101E40000E949B03E7CF0F3F110511F461E091CF92
:101E5000F6018491EFEFE80FEF3008F07CC0F0E07E
:101E6000EC5CF04F0C940111430F480F4D0F570FCE
:101E7000610FAB0FAB0FAB0F6B0F750F7F0F890FA0
:101E8000960FAB0F9E0F84B5806884BD07BD74CFDD
:101E900084B5806284BD08BD6FCF8091800080686A
:101EA00080938000109389000093880065CF809113
:101EB000800080628093800010938B0000938A00E2
:101EC0005BCF8091800088608093800010938D00AC
:101ED00000938C0051CF8091900080688093900097
:101EE000109399000093980047CF809190008062F2
:101EF0008093900010939B0000939A003DCF8091B7
:101F0000900088608093900010939D0000939C0047
:101F100033CF8091C00080688093C0008091C00062
:101F20008F7B8093C0000093CF0026CF8091C000AC
:101F300080628093C0000093D0001ECF8091C200C9
:101F400088608093C2008091C2008B7F8093C20022
:101F50000093D20011CF003811050CF077CF08CFD5
:101F60000E94C40F0C94A5100E949E1058F00E946D
:101F7000971040F029F45F3F29F00C948E10511116
:101F80000C94D9100C9494100E94B61068F3992305
:101F9000B1F3552391F3951B550BBB27AA27621765
:101FA0007307840738F09F5F5F4F220F331F441F72
:101FB000AA1FA9F335D00E2E3AF0E0E832D09150A6
:101FC0005040E695001CCAF72BD0FE2F29D0660F93
:101FD000771F881FBB1F261737074807AB07B0E8D6
:101FE00009F0BB0B802DBF01FF2793585F4F3AF0DC
:101FF0009E3F510578F00C948E100C94D9105F3FE1
:10200000E4F3983ED4F3869577956795B795F79561
:102010009F5FC9F7880F911D9695879597F9089549
:10202000E1E0660F771F881FBB1F621773078407E5
:10203000BA0720F0621B730B840BBA0BEE1F88F7F4
:10204000E09508950E94BE1088F09F5798F0B92F30
:102050009927B751B0F0E1F0660F771F881F991FDD
:102060001AF0BA95C9F714C0B13091F00E94D81097
:10207000B1E008950C94D810672F782F8827B85FA7
:1020800039F0B93FCCF3869577956795B395D9F735
:102090003EF490958095709561957F4F8F4F9F4F3F
:1020A0000895E89409C097FB3EF49095809570954B
:1020B00061957F4F8F4F9F4F9923A9F0F92F96E994
:1020C000BB279395F695879577956795B795F11109
:1020D000F8CFFAF4BB0F11F460FF1BC06F5F7F4FA6
:1020E0008F4F9F4F16C0882311F096E911C07723B8
:1020F00021F09EE8872F762F05C0662371F096E8C1
:10210000862F70E060E02AF09A95660F771F881F8F
:10211000DAF7880F9695879597F9089597F99F674D
:1021200080E870E060E008959FEF80EC089500245F
:102130000A941616170618060906089500240A942C
:1021400012161306140605060895092E0394000CB2
:1021500011F4882352F0BB0F40F4BF2B11F460FF41
:1021600004C06F5F7F4F8F4F9F4F089557FD90586A
:10217000440F551F59F05F3F71F04795880F97FB4B
:10218000991F61F09F3F79F0879508951216130605
:102190001406551FF2CF4695F1DF08C01616170634
:1021A0001806991FF1CF8695710561050894089569
:1021B000E894BB2766277727CB0197F90895A1E21A
:1021C0001A2EAA1BBB1BFD010DC0AA1FBB1FEE1FB1
:1021D000FF1FA217B307E407F50720F0A21BB30BFC
:1021E000E40BF50B661F771F881F991F1A9469F778
:1021F00060957095809590959B01AC01BD01CF01D4
:102200000895EE0FFF1F0590F491E02D0994F894C6
:02221000FFCFFE
:10221200FFFFFFFF00E1000000000000000040009F
:102222001400540000C1808100000000000000B1D1
:10223200017504D201C7011802D601F401000000A1
:102242000082055505CD052B054E053B052C0500E5
:102252000000001108F902CD05CC05524553504942
:102262005241444F5220563100524547554C452069
:1022720049504D20412030002020202020202020C5
:10228200202549504D2020002020202020202020E1
:0222920020002A
:2070000055C000006EC000006CC000006AC0000068C0000066C0000064C0000062C0000043
:2070200060C000005EC00000F2C400005AC0000058C0000056C0000054C0000052C00000EE
:2070400050C0000078C000004CC000004AC0000048C0000046C0000044C0000042C00000BE
:2070600040C000003EC000003CC000003AC0000038C0000036C0000034C0000032C0000048
:2070800030C000002EC000002CC000002AC0000028C0000026C0000024C0000022C00000A8
:2070A00020C000001EC000001CC0000011241FBECFEFDAE0DEBFCDBF11E0A0E0B1E0E2E3BC
:2070C000FFE702C005900D92A83AB107D9F711E0A8EAB1E001C01D92AE3BB107E1F78FD30B
:2070E00026C78ECFF89410926F0010928100109285001092840081E085BF15BE47985D9AEB
:20710000289A0C94000008952091B2013091B3012F5F3F4F3093B3012093B201932F37FFA6
:2071200003C08EEF831B982F990F921710F447980895479A08951F920F920FB60F9211246E
:207140002F938F939F93EF93FF9310928500109284008091A8019091A901009741F00197D3
:207160009093A9018093A801892B09F45D9A8091AA019091AB01009741F001979093AB0126
:207180008093AA01892B09F4289AE0E0F0E0859194918F5F9F4F49F08091AC019091AD0151
:2071A00001969093AD018093AC01FF91EF919F918F912F910F900FBE0F901F90189584E0BC
:2071C0008093E9000DC08091E8008B778093E80003C08EB3882351F08091E80082FFF9CFBE
:2071E0008091E80085FFEFCF8091F1000895982F83E08093E9008091E80085FD0DC0809136
:20720000E8008E778093E80003C08EB3882369F08091E80080FFF9CF9093F1005D9884E6CB
:2072200090E09093A9018093A80108954F925F926F927F928F929F92AF92BF92CF92DF921E
:20724000EF92FF920F931F93CF93DF9384E08093E9008091E80082FF57C2289884E690E067
:207260009093AB018093AA01AADF182F853481F48CE49DE19093AD018093AC0107B600FC4B
:20728000FDCFF999FECF81E180935700E89503C0843519F494DF8DE00DC28C34E1F38035F9
:2072A000D1F3843721F484E4A2DF80E003C2813611F489E5FFC18134B1F481DF182F7FDFE3
:2072C00090E0880F991FAA2797FDA095BA2F312F330F20E0442737FD4095542F822B932B68
:2072E000A42BB52BB8C1803711F483E5E3C1833549F4C0E0D1E089917ADF21E0C730D20714
:20730000D1F7D9C1863521F481E371DF80E3D2C1833731F487E86BDF85E969DF8EE1CAC149
:207320008536B9F4E0E0F0E093E085E090935700E89507B600FCFDCF80935700E89507B65D
:2073400000FCFDCFE058FF4FA0E7E030FA0771F7A2CF823739F4E1E0F0E089E08093570024
:207360008491A8C1863439F4E0E0F0E089E08093570084919FC18E3439F4E3E0F0E089E0E5
:2073800080935700849196C1813539F4E2E0F0E089E08093570084918DC1823631F489E521
:2073A00026DF80E024DF80E885C1823419F0873609F0E5C01092AD011092AC0100DF082FE8
:2073C000FEDEF82EFCDE682E8554823008F071C1902F80E0CF2DD0E0C82BD92B10926F00B3
:2073E000173609F04BC081E180935700E895DD24CC24C3943FC0E090AE01F090AF010091CC
:20740000B0011091B101B6E46B16D9F4ED2DF0E0EE29FF29E4918E2FEADEDD2081F082E08D
:2074200090E0A0E0B0E0E80EF91E0A1F1B1FE092AE01F092AF010093B0011093B101DC2470
:2074400018C0D801C701B695A7959795879559D5CEDE82E090E0A0E0B0E0E80EF91E0A1FF2
:207460001B1FE092AE01F092AF010093B0011093B1012197209709F0BECF7DC08090AE01F5
:207480009090AF01A090B001B090B10196E4691609F05DC083E0F40180935700E89507B63E
:2074A00000FCFDCF54C0F6E46F1661F5772031F1E090AE01F090AF010091B0011091B1019E
:2074C0007EDED82ECC24852D90E08C299D29F7010C0140925700E895112482E090E0A0E08B
:2074E000B0E0E80EF91E0A1F1B1FE092AE01F092AF010093B0011093B10102C060DE582E1A
:20750000742423C0E090AE01F090AF010091B0011091B10116950795F794E79450DE682FFA
:20752000C701F7D48091AE019091AF01A091B001B091B1010296A11DB11D8093AE01909349
:20754000AF01A093B001B093B101219704C05524772444244394209709F0A5CF96E46916B6
:2075600041F485E0F40180935700E89507B600FCFDCF8DE03CDE82E080936F009CC0833492
:2075800071F40091AE011091AF0119DE90E021E0F8010C0120935700E89511247CCE8336C8
:2075A00019F5E090AE01F090AF010091B0011091B10105DEF701E16090E021E00C0120938C
:2075C0005700E895112482E090E0A0E0B0E0E80EF91E0A1F1B1FE092AE01F092AF0100936A
:2075E000B0011093B10157CE8D3661F4E091AE01F091AF0185E080935700E89507B600FCF2
:20760000FDCF49CE823551F4E091AE01F091AF0105911491812FEBDD802F4CC0843421F5FE
:20762000E090AE01F090AF010091B0011091B10116950795F794E794C2DD682FC70169D4DE
:207640008091AE019091AF01A091B001B091B1010296A11DB11D8093AE019093AF01A093D8
:20766000B001B093B10117CE843609F5E090AE01F090AF010091B0011091B101D801C70142
:20768000B695A795979587953CD4B1DD82E090E0A0E0B0E0E80EF91E0A1F1B1FE092AE010A
:2076A000F092AF010093B0011093B10104C08B3111F08FE39CDD83E08093E9009091E8002B
:2076C0008091E8008E778093E80095FF04C010C08EB38823C9F08091E80080FFF9CF809193
:2076E000E8008E778093E80003C08EB3882361F08091E80080FFF9CF84E08093E9008091F1
:20770000E8008B778093E800DF91CF911F910F91FF90EF90DF90CF90BF90AF909F908F90AC
:207720007F906F905F904F9008959091B601892F8F77813249F58091B7018032A1F081328A
:2077400019F5913A09F58091E800877F8093E8008DE091E067E070E00BD28091E8008B770B
:207760008093E8000895913279F48091E800877F8093E8008DE091E067E070E05DD2809192
:20778000E8008E778093E800089582E061EC42E0B5D083E061E842E1B1D084E060E842E1EF
:2077A000ADC084B7877F84BF88E10FB6F89480936000109260000FBE20E880E090E00FB63F
:2077C000F89420936100809361000FBE81E085BF92E095BF3F9A209A559AE1E6F0E02083A1
:2077E000108247985D9A289A109289008AEF8093880090936F0083E080938100F0C0409116
:20780000000850910108109201081092000894B714BE88E10FB6F8948093600010926000D5
:207820000FBE292F30E0F901E270F07091FD18C090FF05C0859194918F5F9F4F81F423FFFF
:207840000FC08091090190910A014817590741F0E0E0F0E0859194918F5F9F4F09F042DC64
:20786000A0DF78941092AD011092AC010CC0DEDC36D38091AC019091AD0181549F4110F00D
:207880001092140141DC80911401882381F78091E00081608093E00025DC80E090E0089598
:2078A000FA01923049F0933061F09130F9F485E191E022E130E01EC087E291E02EE330E04D
:2078C00019C0882329F485E691E024E030E012C0813029F489E691E022E230E00BC0823006
:2078E00029F48DE891E028E130E004C080E090E020E030E091838083C90108958093E9004E
:207900008091EB0081608093EB001092ED006093EC004093ED008091EE00881F8827881F62
:2079200008958091B60188238CF403C08EB38823B1F08091E80082FFF9CF8091E8008B772A
:207940008093E80008958EB3882349F08091E80080FFF9CF8091E8008E778093E800089594
:20796000EF92FF920F931F9345D04CD008ED10E0F80180818F77808380818068808380819B
:207980008F7D808319BC1EBA1092B40180EEE82EF12CF70180818B7F8083F8018081816052
:2079A000808380E060E042E0A9DFE1EEF0E080818E7F8083E2EEF0E0808181608083808144
:2079C00088608083F70180818E7F8083F8018081806180831F910F91FF90EF900895E7ED06
:2079E000F0E08081816080838AE482BF81E08093B501B6CFE8EDF0E080818E7F808310921C
:207A0000E20008951092DA001092E10008951F920F920FB60F9211242F933F934F935F93F6
:207A20006F937F938F939F93AF93BF93EF93FF938091DA0080FF1BC08091D80080FF17C0B2
:207A40008091DA008E7F8093DA008091D90080FF0BC080E189BD82E189BD09B400FEFDCF36
:207A600081E08EBB3BD203C019BC1EBA37D28091E10080FF17C08091E20080FF13C0809138
:207A8000E2008E7F8093E2008091E20080618093E2008091D80080628093D80019BC85E049
:207AA0008EBB1CD28091E10084FF2CC08091E20084FF28C080E189BD82E189BD09B400FEC5
:207AC000FDCF8091D8008F7D8093D8008091E1008F7E8093E1008091E2008F7E8093E20012
:207AE0008091E20081608093E2008091B401882331F48091E30087FD02C081E001C084E067
:207B00008EBBECD18091E10083FF21C08091E20083FF1DC08091E100877F8093E10082E06A
:207B20008EBB1092B4018091E1008E7F8093E1008091E2008E7F8093E2008091E2008061E9
:207B40008093E20080E060E042E0D8DEC7D1FF91EF91BF91AF919F918F917F916F915F9130
:207B60004F913F912F910F900FBE0F901F9018959C014091BC015091BD014617570718F49D
:207B8000F90190E044C06115710511F0AB01F8CF8091E8008E778093E80040E050E0F0CF0F
:207BA0008EB3882309F444C0853009F443C08091E80083FF02C081E008958091E80082FD70
:207BC00031C08091E80080FF22C08091F3009091F200782F60E0292F30E0262B372B07C07A
:207BE00081918093F100415050402F5F3F4F4115510519F02830310598F390E02830310566
:207C000009F491E08091E8008E778093E8004115510531F6992321F605C08EB3882341F075
:207C2000853041F08091E80082FFF7CF80E0089582E0089583E008959C016115710529F47C
:207C40008091E8008B778093E800F90126C08EB3882391F1853091F18091E80083FF02C06C
:207C600081E008958091E80082FFF1CF06C08091F10081936150704059F02091F300809191
:207C8000F200322F20E090E0822B932B892B79F78091E8008B778093E80061157105B9F601
:207CA00005C08EB3882341F0853041F08091E80080FFF7CF80E0089582E0089583E00895C2
:207CC0000F931F93DF93CF9300D0CDB7DEB7E6EBF1E08091F100819381E0EE3BF807C9F792
:207CE00024DD8091E80083FFE4C08091B6019091B701953009F46DC0963040F4913081F1A7
:207D0000913070F0933009F0D4C02AC0983009F4A3C0993009F4B2C0963009F0CAC07CC023
:207D2000803809F4C6C0823809F0C3C08091BA0187708093E9008091EB001092E9002091DB
:207D4000E800277F2093E80090E025E0969587952A95E1F781708093F1001092F10087C0D8
:207D6000882319F0823009F0A4C08F71823009F0A0C08091B801882331F52091BA01277097
:207D800009F497C02093E9008091EB0080FF1BC0933021F48091EB00806213C08091EB0018
:207DA00080618093EB0081E090E002C0880F991F2A95E2F78093EA001092EA008091EB00E5
:207DC00088608093EB001092E9008091E800877F51C0882309F06DC01091B8011F770FB79B
:207DE000F8948091E800877F8093E8009ADD8091E80080FFFCCF8091E3008078812B809398
:207E0000E30080688093E300112311F482E001C083E08EBB0FBF4DC08058823008F049C033
:207E20008091B8019091B9016091BA01AE014F5F5F4F36DDBC01009709F43BC08091E8008E
:207E4000877F8093E80089819A8192DE8091E8008B778093E8002DC0803859F58091E800AA
:207E6000877F8093E8008091B4018093F1008091E8008E778093E80054DD1BC08823C9F4CA
:207E80009091B8019230A8F48091E800877F8093E8009093B40145DD8091B401882331F420
:207EA0008091E30087FD02C081E001C084E08EBB6CDC8091E80083FF0AC08091EB0080624E
:207EC0008093EB008091E800877F8093E8000F900F90CF91DF911F910F91089508951F9360
:207EE0008EB3882361F01091E9001092E9008091E80083FF01C0E4DE17701093E9001F916F
:207F00000895F999FECF92BD81BDF89A992780B50895262FF999FECF1FBA92BD81BD20BDBD
:207F20000FB6F894FA9AF99A0FBE01960895F894FFCF4341544552494E4100777700080031
:207F40000000000000080112011001020000084123360001000201000109023E00020100FF
:207F600080320904000001020201000524001001042402040524060001070582030800FF0C
:207F800009040100020A000000070504021000010705830210000104030904220341007216
:207FA000006400750069006E006F0020004C0065006F006E006100720064006F0000001836
:1A7FC00003410072006400750069006E006F0020004C004C004300000000D7
:00000001FF
