:1000000002C1000030C100002EC100002CC1000060
:100010002AC1000028C1000026C1000024C1000040
:1000200022C1000020C100001EC100001CC1000050
:100030001AC1000018C1000016C1000014C1000060
:1000400012C1000010C100000EC100000CC1000070
:100050000AC1000008C1000006C10000BBC50000C5
:1000600002C1000000C10000FEC00000FCC0000092
:10007000FAC00000F8C00000F6C00000F4C00000A4
:10008000F2C00000F0C00000EEC00000ECC00000B4
:10009000EAC00000E8C00000E6C00000E5C50000BE
:1000A000E2C00000E0C00000DEC00000DCC00000D4
:1000B000DAC00000D8C00000D6C00000D4C00000E4
:1000C000D2C00000D0C00000CEC00000CCC00000F4
:1000D000CAC00000C8C00000C6C00000C4C0000004
:1000E000C2C0000000002100240027002A002D00CB
:1000F0003000330001010000040107010A01000083
:100100002200250028002B002E00310034000201BF
:100110000000050108010B0100002000230026005B
:1001200029002C002F00320000010000030106010D
:10013000090105050505070508080808020202026D
:100140000A0A080804040404010101010101010173
:100150000303030303030303040707070C0C0C0C3E
:100160000C0C0C0C02020202060606060606060627
:100170000B0B0B0B0B0B0B0B0102102020080810B4
:100180002040102040800201020108040201010207
:1001900004081020408080402010080402018004E0
:1001A000020180402010080402010804020101023B
:1001B0000408102040800102040810204080000044
:1001C0000A0B02090C0D0E080703040100000000D1
:1001D000000000000000000000000000000000001F
:1001E00000000000000000000000121110000000DC
:1001F00000000000000000000000000000000000FF
:1002000000000000570711241FBECFEFD1E2DEBF70
:10021000CDBF00E00CBF12E0A0E0B2E0EEE1F8E1FB
:1002200000E00BBF02C007900D92AE35B107D9F7C1
:1002300023E0AEE5B2E001C01D92A634B207E1F7BB
:1002400011E0C3E0D1E000E006C021970109802F52
:10025000FE010E94050CC230D10780E00807A9F713
:1002600056D60C940D0CCCCE982F20911E0381E015
:10027000213208F043C08091FA028111FCCF8091B5
:100280001D0332E03093FA029093F9029FEF9093AE
:10029000F8021092F7022093F602ADEFB2E0E6ED1D
:1002A000F2E090E0291331C01092D5029091D5026E
:1002B000880F892B8093D5028091D402813049F533
:1002C0001092D4028091D5028093BB008091BC0033
:1002D00083FDF8CF85EC8093BC008091FA028230D8
:1002E000E1F38091F8028F3FB1F08091F802803203
:1002F000A1F08091F802803391F084E01092FC022A
:1003000010921E031092FB0208953D9131939F5F5E
:10031000C9CF85EEE0CF80E0F1CF82E0EFCF83E080
:10032000EDCF08950895AF92BF92CF92DF92EF92F2
:10033000FF920F931F93CF93DF936C017B018B018F
:10034000040F151FEB015E01AE18BF08C017D107DF
:1003500059F06991D601ED91FC910190F081E02D69
:10036000C6011995892B79F7C501DF91CF911F91AE
:100370000F91FF90EF90DF90CF90BF90AF900895D6
:100380008150823108F05AC0E82FF0E08827E4530A
:10039000FE4F8F4F0C94050CEC01F001DE01E401DF
:1003A000E8011E02F301F901FD01030207020B023D
:1003B000110215021E0219021F0223028091800001
:1003C0008F77809380000895809180008F7DF9CF92
:1003D00080918000877FF5CF84B58F7784BD0895A5
:1003E00084B58F7DFBCF8091B0008F778093B00074
:1003F00008958091B0008F7DF9CF809190008F7724
:10040000809390000895809190008F7DF9CF809126
:100410009000877FF5CF8091A0008F778093A00018
:1004200008958091A0008F7DF9CF8091A000877FF3
:10043000F5CF809120018F778093200108958091DE
:1004400020018F7DF9CF80912001877FF5CF1F9309
:10045000CF93DF93282F30E0F901E254FE4F8491CF
:10046000F901E858FE4FD491F901EE5CFE4FC491BA
:10047000CC23A1F0162F811183DFEC2FF0E0EE0FDB
:10048000FF1FE250FF4FA591B4918FB7F894EC9104
:10049000111108C0D095DE23DC938FBFDF91CF917F
:1004A0001F910895DE2BF8CFCF93DF9390E0FC01EE
:1004B000E858FE4F24918E5C9E4FFC018491882366
:1004C000D1F090E0880F991FFC01EC51FF4FA591EE
:1004D000B491FC01E250FF4FC591D49161110EC05F
:1004E0009FB7F8948C91E22FE0958E238C9328810E
:1004F000E223E8839FBFDF91CF9108958FB7F894EF
:10050000EC91E22BEC938FBFF6CF863308F0865345
:1005100020917B00982F9870277F922B90937B00DF
:100520008770806480937C0080917A0080648093DF
:100530007A0080917A0086FDFCCF809178009091BE
:10054000790008953FB7F8948091C6029091C70250
:10055000A091C802B091C90226B5A89B05C02F3F43
:1005600019F00196A11DB11D3FBFBA2FA92F982FD9
:100570008827BC01CD01620F711D811D911D42E0D4
:10058000660F771F881F991F4A95D1F708958F929C
:100590009F92AF92BF92CF92DF92EF92FF924B0168
:1005A0005C01D0DF6B017C01CDDF6C197D098E0908
:1005B0009F09683E734081059105B0F321E0821ADE
:1005C0009108A108B10888EEC80E83E0D81EE11C8E
:1005D000F11C81149104A104B10431F7FF90EF9054
:1005E000DF90CF90BF90AF909F908F90089585ED52
:1005F0008093BC008091BC0084FDFCCF1092FA0275
:10060000089520919E02260F3327331F2132310592
:10061000ECF42091FA02FC0190E080E0243069F0D3
:1006200082E00895A0919E022191AC0142585D4F55
:10063000A40FB52FB11D2C930196861798F38091C6
:100640009E02680F60939E0280E0089581E0089505
:100650000895E091CF028091CE02E81730F4F0E0E7
:10066000E25AFD4F808190E008958FEF9FEF08954B
:100670009091CF028091CE022FEF3FEF981748F470
:10068000E92FF0E0E25AFD4F208130E09F5F909328
:10069000CF02C90108958091CE029091CF02891BAB
:1006A000990B0895CF92DF92EF92FF920F931F93D1
:1006B000CF93DF937C01CB018A012091FB0222239F
:1006C00089F0EB016B01C40ED51ECC15DD0561F080
:1006D0006991D701ED91FC910190F081E02DC70166
:1006E0001995F3CF642F8DDFC801DF91CF911F9152
:1006F0000F91FF90EF90DF90CF900895CF93DF930D
:100700001F92CDB7DEB769832091FB022223F9F057
:1007100020911E03203258F021E030E0FC013383A9
:10072000228390E080E00F90DF91CF910895809137
:10073000FC02E82FF0E0E350FD4F998190838F5F3A
:100740008093FC0280931E0381E090E0ECCF61E097
:10075000CE01019656DFF8CFCF93C42FFC018081E4
:10076000806291E09093FB0280931D031092FC0243
:1007700010921E038FE193E0C1DF6C2F8FE193E0B5
:10078000BDDF81E0CF9170CD089590E080E00895C5
:10079000FC0101900020E9F73197AF01481B590B8C
:1007A000BC018BE293E0BFCDCF93DF93EC01888156
:1007B000806291E09093FB0280931D031092FC02F3
:1007C00010921E038FE193E099DF81E04DDD80916F
:1007D000FA028111FCCF888191E09093FA02909304
:1007E000F9022FEF2093F8021092F7021092F6020E
:1007F0009093D5029091D5028062880F892B8093C7
:10080000D5028091D402813049F51092D4028091B2
:10081000D5028093BB008091BC0083FDF8CF85ECAE
:100820008093BC008091FA028130E1F38091F7025D
:1008300091E0811102C09091F702A6EDB2E0EEE5E1
:10084000F2E080E089130CC01092CF028093CE02B8
:100850008FE193E00DDFDF91CF91089585EEE0CF3A
:100860002D9121938F5FEECF1F93CF93DF93EC01F8
:10087000162F60E099DF41E050E001C0440F1A9567
:10088000EAF74095482360E0CE01DF91CF911F91B8
:1008900063CFFC01962F818D8F3F29F0683048F49B
:1008A000CF014A96E1CF85898F3F19F461E0892F06
:1008B000FBCD0895EF92FF920F931F93CF93DF9399
:1008C000EC01162F042F898D8F3FE1F0683008F07E
:1008D0004CC06A9669E0CE0167DF41E050E001C09C
:1008E000440F1A95EAF7013051F4482B69E0CE0124
:1008F000DF91CF911F910F91FF90EF902DCF4095F9
:100900004823F4CF8D898F3F69F1288D81E090E0F5
:1009100001C0880F6A95EAF7413009F5822B888F6C
:1009200060E08F8994DD088DFD88EE8818E0602FE7
:10093000661F6627661F8E2D8ADD000F61E08F2DF2
:1009400086DD60E08F2D83DD115089F761E08F89AE
:10095000DF91CF911F910F91FF90EF9078CD80950F
:100960008223DDCF642F812FF3CFDF91CF911F91B1
:100970000F91FF90EF900895CF93DF93EC0140E04B
:100980006E8198DF41E06E81CE0194DF40E06E81A0
:10099000CE0190DF8BE891E00197F1F7DF91CF91E5
:1009A0000895CF92DF92EF92FF920F931F93CF9310
:1009B000DF938C01FC01818DE8012796C62ED12C96
:1009C000F12CE12C8F3F09F45BC07801FAE1EF0EC6
:1009D000F11C69E0C701E8DEFE0170E060E0C1E003
:1009E000D0E091919E01092E01C0220F0A94EAF7EE
:1009F00020958223A601062E02C0559547950A949C
:100A0000E2F74170552701C0440F9A95EAF7842B0D
:100A10006F5F7F4F6430710521F7F80196819E0169
:100A200001C0220F9A95EAF7D22ED094D8224D2DEC
:100A300069E0C70191DEF8018681AE0101C0440F73
:100A40008A95EAF7D42A4D2D69E0C70185DEF801C1
:100A5000868101C0CC0F8A95EAF7C0954C2F4D21B5
:100A600069E0C70179DE8BE891E00197F1F7DF914A
:100A7000CF911F910F91FF90EF90DF90CF9008954D
:100A80006991C80106DFA6010E2C02C05595479555
:100A90000A94E2F74170FE0131976081C8010ADFD4
:100AA000FFEFEF1AFF0A84E0E816F10449F7C801E6
:100AB000DF91CF911F910F91FF90EF90DF90CF903A
:100AC0005BCFCF92DF92EF92FF920F931F93CF9362
:100AD000DF93EC01F62E6C81EDDE6D816F3F19F036
:100AE00040E0CE01E7DE0F2D10E08F8584FF29C0A6
:100AF0006E0187E0C80ED11CF12CE12CF60161914A
:100B00006F01CE01C6DEA8010E2C02C05595479597
:100B10000A94E2F74170F60131976081CE01CADE96
:100B2000FFEFEF1AFF0A88E0E816F10439F7CE016B
:100B3000DF91CF911F910F91FF90EF90DF90CF90B9
:100B40001BCFB80184E0759567958A95E1F7CE01D2
:100B500028DF6F2DCE01DF91CF911F910F91FF9074
:100B6000EF90DF90CF901DCF40E0682F8BE293E0B5
:100B7000A8CFCF93DF9300D000D01F921F92CDB7A4
:100B8000DEB798E0E0E0F2E0DE01119601900D9210
:100B90009A95E1F790913E03961708F46FEF70E095
:100BA000660F771F21E030E02C0F3D1F620F731F8F
:100BB000FB019081890F806828960FB6F894DEBFFC
:100BC0000FBECDBFDF91CF91CFCF41E07ADF81E083
:100BD00090E008951F920F920FB60F9211242F9359
:100BE0003F938F939F93AF93BF938091C202909155
:100BF000C302A091C402B091C5023091C10223E0AA
:100C0000230F2D3758F50196A11DB11D2093C10268
:100C10008093C2029093C302A093C402B093C50212
:100C20008091C6029091C702A091C802B091C902FA
:100C30000196A11DB11D8093C6029093C702A09397
:100C4000C802B093C902BF91AF919F918F913F911C
:100C50002F910F900FBE0F901F90189526E8230F2D
:100C60000296A11DB11DD2CF1F920F920FB60F9207
:100C700011240BB60F922F933F934F935F936F9373
:100C80007F938F939F93AF93BF93EF93FF93809145
:100C9000B900887F803609F44CC008F03FC0883224
:100CA00009F4A8C028F5803109F49CC0C8F4882351
:100CB00009F4FAC0883009F495C0FF91EF91BF9113
:100CC000AF919F918F917F916F915F914F913F91E4
:100CD0002F910F900BBE0F900FBE0F901F90189585
:100CE000883109F487C0803241F78093F80214C03C
:100CF000803409F49CC040F48033B9F38833E9F6BA
:100D00008093F80285ECAFC0803509F484C0883543
:100D100009F495C0883489F66ADCCFCF883909F4A4
:100D20008CC038F5883729F050F4883611F08037B8
:100D300021F683E08093FA021092C00257C08838EF
:100D400009F47BC0803919F0803809F0B6CF809162
:100D5000C002803208F071C0E091C00281E08E0FC5
:100D60008093C0028091BB00F0E0E056FD4F80838D
:100D70003DC0803B39F0E0F4803A09F479C0883A0C
:100D800009F09BCF84E08093FA0210929F021092A8
:100D90009E02E091CC02F091CD02199580919E02C5
:100DA00081110FC081E080939E0210927E0209C0E3
:100DB000803C09F4A7CF883C09F4A4CF883B09F014
:100DC0007CCFE0919F0281E08E0F80939F02F0E044
:100DD000E258FD4F80818093BB0090919F028091EB
:100DE0009E0229C08091D5028093BB0085EC809340
:100DF000BC0063CF9091F7028091F602981758F5E6
:100E0000E091F70281E08E0F8093F702F0E0EA5262
:100E1000FD4F8081E9CFE091F70281E08E0F809352
:100E2000F7028091BB00F0E0EA52FD4F8083909181
:100E3000F7028091F6029817C8F285E8D8CFE091C2
:100E4000F70281E08E0F8093F7028091BB00F0E003
:100E5000EA52FD4F80838091F90281115DCF81E0DC
:100E60008093D40284EA8093BC001092FA0225CFCA
:100E700085EC8093BC001092FA028091C00280320F
:100E800030F4E091C002F0E0E056FD4F1082609136
:100E9000C00270E0E091CA02F091CB0280EA92E0D9
:100EA00019951092C00209CF1092F80235CFEFE1E8
:100EB000F3E01382128288EE93E0A0E0B0E0848336
:100EC0009583A683B7838CE092E091838083EBE2E5
:100ED000F3E0138212828EE192E09183808387E0B7
:100EE00084838FEF858396E0968395E0978394E0E3
:100EF000908793E0918792E09287138614861586F7
:100F00001686818F878B868B858B17860895CF9366
:100F1000DF93CDB7DEB7A1970FB6F894DEBF0FBE53
:100F2000CDBF789484B5826084BD84B5816084BD72
:100F300085B5826085BD85B5816085BD80916E0077
:100F4000816080936E0010928100809181008260A8
:100F500080938100809181008160809381008091E5
:100F600080008160809380008091B10084608093D4
:100F7000B1008091B00081608093B00080919100B9
:100F800082608093910080919100816080939100B4
:100F9000809190008160809390008091A100826098
:100FA0008093A1008091A10081608093A100809135
:100FB000A00081608093A0008091210182608093D5
:100FC0002101809121018160809321018091200184
:100FD00081608093200180917A00846080937A0000
:100FE00080917A00826080937A0080917A0081609B
:100FF00080937A0080917A00806880937A001092C2
:10100000C10060E088E350DA809144038F3F09F427
:1010100007C18770809345031092CF021092CE02D1
:101020001092FC0210921E031092FA0211E010932B
:10103000F9021092D40261E084E109DA61E085E10D
:1010400006DA8091B9008E7F8093B9008091B90053
:101050008D7F8093B90088E48093B80085E4809305
:10106000BC0081E991E09093CD028093CC0282E9AB
:1010700091E09093CB028093CA02809145038062F5
:101080001093FB0280931D031092FC0210921E032A
:1010900060E08FE193E032DB6FEF8FE193E02EDBD6
:1010A00060E08FE193E02ADB60E08FE193E026DBF4
:1010B00060E08FE193E022DB60E08FE193E01EDBF4
:1010C00060E08FE193E01ADB60E08FE193E016DBF4
:1010D00060E08FE193E012DB60E08FE193E00EDBF4
:1010E00060E08FE193E00ADB81E0BED867E085E451
:1010F00093E0BADB69E085E493E056DB482F406873
:1011000069E085E493E028DB02E313E0B6E3EB2E2D
:10111000B3E0FB2EF80161918F018BE293E0B9DB24
:10112000E016F106B9F760912F03683018F485E4F2
:1011300093E09ADB60913103683018F485E493E022
:1011400093DB80913A03886080933A0382E0809336
:101150003E0310923F038BE39DE00197F1F740E0DF
:1011600060912F038BE293E0A5DB40E060913103B7
:101170008BE293E09FDB609130036F3F21F040E012
:101180008BE293E097DB80913A0384FD6BC063E0D0
:101190008BE293E006DC0BE416E4C8010197F1F75B
:1011A00063E08BE293E0FDDBC8010197F1F763E0B8
:1011B0008BE293E0F6DB83E592E00197F1F762E0E2
:1011C0008BE293E0EEDB80913A038062CDDC84E039
:1011D00080933B038CE0C8DC81E0C6DC8BE39FE1BD
:1011E0000197F1F782E080933C0386E0BDDC60E08C
:1011F00081E0BFDC86E292E0CBDA86E386D9909389
:10120000D3028093D2028091D2029091D30261E006
:10121000892B09F43AC081E0ACDC84E392E0ECCFA6
:101220008091400361E08F3F79F0809141033CD988
:1012300061E08091400338D961E08091420334D964
:1012400080E8809343037DCF80912F032DD9809137
:1012500030038F3F11F061E027D961E080913103C5
:1012600023D96FCF806280DC8BE496E40197F1F79D
:1012700080913A03806278DC83E592E00197F1F790
:1012800080913A03806270DC9ECF80E072DC83E460
:1012900092E07EDA61E08DE0DAD868EE73E080E01B
:1012A00090E075D960E08DE0D2D856EF252E51E060
:1012B000352E60EB862E61E0962E7AE6E72E71E001
:1012C000F72EE8ECAE2EE1E0BE2EFAE04F2E512CC8
:1012D000612C712CA0E0CA2EA0E0DA2EF1018491DD
:1012E000F4011491F7010491002371F0811148D8A1
:1012F000E02FF0E0EE0FFF1FE85EFE4FA591B491E6
:101300008C91182381E009F480E061E080FD6AC0DF
:101310008DE09DD864E670E080E090E038D960E030
:101320008DE095D864E670E080E090E030D986E307
:10133000ECD89093D3028093D2028C011695079536
:101340001695079561E08AE0AFD80115110509F0FF
:1013500058C060E08AE07BD88091D2029091D3029D
:1013600096958795969587959093D1028093D00214
:1013700061E080E0FEDB83E592E00ADA61E086E08E
:10138000F8DB6091D0027091D10290E080E08DD1C5
:1013900023E333E343E250E4F4D05BD17093D10212
:1013A0006093D0029B0150E040E019A28E010F5DD6
:1013B0001F4FCA01B901A301920105D2605DF80176
:1013C00062938F01211531054105510591F7309741
:1013D00011F0CF01DDD9C114D10409F47FCF0E94EF
:1013E00000007CCF8DE033D864EF71E080E090E0C6
:1013F000CED860E08DE02BD864EF71E080E090E023
:1014000095CF0F3F110511F461E0A4CFF501849150
:10141000EFEFE80FE23108F0AFC0F0E08827ED5EB3
:10142000F54F8F4FF2C1250A2A0A2F0A390A430ABB
:10143000BC0A4D0A550A5D0A670A710A7B0A8A0AC4
:10144000940ABC0A9E0AA80AB20A84B5806884BDC0
:1014500007BD82CF84B5806284BD08BD7DCF8091F9
:10146000800080688093800010938900009388003A
:1014700073CF8091800080628093800010938B00F6
:1014800000938A0069CF80918000886080938000FB
:1014900010938D0000938C005FCF8091B000806826
:1014A0008093B0000093B30057CF8091B00080626A
:1014B0008093B0000093B4004FCF8091900080687B
:1014C00080939000109399000093980045CF8091ED
:1014D000900080628093900010939B0000939A008C
:1014E0003BCF8091900088608093900010939D0086
:1014F00000939C0031CF8091A00080688093A00071
:101500008091A0008F7B8093A0001093A90000938E
:10151000A80022CF8091A00080628093A000109349
:10152000AB000093AA0018CF8091A0008860809340
:10153000A0001093AD000093AC000ECF809120016D
:10154000806880932001109329010093280104CF23
:101550008091200180628093200110932B010093E1
:101560002A01FACE80912001886080932001109397
:101570002D0100932C01F0CE003811050CF044CF62
:10158000E8CE0CD0E6C0DED040F0D5D030F021F46B
:101590005F3F19F0C7C0511110C1CAC0EBD098F31A
:1015A0009923C9F35523B1F3951B550BBB27AA27E4
:1015B00062177307840738F09F5F5F4F220F331F56
:1015C000441FAA1FA9F333D00E2E3AF0E0E830D022
:1015D00091505040E695001CCAF729D0FE2F27D025
:1015E000660F771F881FBB1F261737074807AB07F3
:1015F000B0E809F0BB0B802DBF01FF2793585F4F68
:101600002AF09E3F510568F08DC0D7C05F3FECF3D4
:10161000983EDCF3869577956795B795F7959F5F2C
:10162000C9F7880F911D9695879597F90895E1E080
:10163000660F771F881FBB1F621773078407BA07DF
:1016400020F0621B730B840BBA0BEE1F88F7E0953A
:10165000089598D088F09F5790F0B92F9927B751E7
:10166000A0F0D1F0660F771F881F991F1AF0BA9566
:10167000C9F712C0B13081F09FD0B1E008959CC08D
:10168000672F782F8827B85F39F0B93FCCF386955C
:1016900077956795B395D9F73EF4909580957095B9
:1016A00061957F4F8F4F9F4F0895E89409C097FB36
:1016B0003EF490958095709561957F4F8F4F9F4F29
:1016C0009923A9F0F92F96E9BB279395F69587956D
:1016D00077956795B795F111F8CFFAF4BB0F11F430
:1016E00060FF1BC06F5F7F4F8F4F9F4F16C08823D7
:1016F00011F096E911C0772321F09EE8872F762F0D
:1017000005C0662371F096E8862F70E060E02AF04D
:101710009A95660F771F881FDAF7880F9695879539
:1017200097F9089597F99F6780E870E060E0089561
:101730009FEF80EC089500240A94161617061806E9
:101740000906089500240A941216130614060506C5
:101750000895092E0394000C11F4882352F0BB0F56
:1017600040F4BF2B11F460FF04C06F5F7F4F8F4FB9
:101770009F4F089557FD9058440F551F59F05F3FF4
:1017800071F04795880F97FB991F61F09F3F79F0A3
:1017900087950895121613061406551FF2CF469525
:1017A000F1DF08C0161617061806991FF1CF8695A7
:1017B0007105610508940895E894BB27662777278B
:1017C000CB0197F90895A1E21A2EAA1BBB1BFD01BC
:1017D0000DC0AA1FBB1FEE1FFF1FA217B307E40710
:1017E000F50720F0A21BB30BE40BF50B661F771F68
:1017F000881F991F1A9469F7609570958095909548
:101800009B01AC01BD01CF010895EE0FFF1F881FA2
:0E1810008BBF0790F691E02D1994F894FFCF4E
:10181E000000400014005400000000007E0352033C
:10182E00C50328034B033803290300000000E50518
:10183E009301C503C40352455350495241444F527C
:10184E0020563100524547554C452049504D2041B8
:10185E002030002020202020202020202549504DFF
:0E186E0020200020202020202020202000000C
:020000023000CC
:10E000000D9489F10D94B2F10D94B2F10D94B2F129
:10E010000D94B2F10D94B2F10D94B2F10D94B2F1F0
:10E020000D94B2F10D94B2F10D94B2F10D94B2F1E0
:10E030000D94B2F10D94B2F10D94B2F10D94B2F1D0
:10E040000D94B2F10D94B2F10D94B2F10D94B2F1C0
:10E050000D94B2F10D94B2F10D94B2F10D94B2F1B0
:10E060000D94B2F10D94B2F10D94B2F10D94B2F1A0
:10E070000D94B2F10D94B2F10D94B2F10D94B2F190
:10E080000D94B2F10D94B2F10D94B2F10D94B2F180
:10E090000D94B2F10D94B2F10D94B2F10D94B2F170
:10E0A0000D94B2F10D94B2F10D94B2F10D94B2F160
:10E0B0000D94B2F10D94B2F10D94B2F10D94B2F150
:10E0C0000D94B2F10D94B2F10D94B2F10D94B2F140
:10E0D0000D94B2F10D94B2F10D94B2F10D94B2F130
:10E0E0000D94B2F141546D656761323536300041AF
:10E0F000726475696E6F206578706C6F72657220DE
:10E1000073746B3530305632206279204D4C530099
:10E11000426F6F746C6F616465723E004875683F52
:10E1200000436F6D70696C6564206F6E203D200048
:10E130004350552054797065202020203D20005FF9
:10E140005F4156525F415243485F5F3D2000415658
:10E1500052204C696243205665723D20004743437C
:10E160002056657273696F6E203D20004350552024
:10E1700049442020202020203D20004C6F7720663D
:10E18000757365202020203D20004869676820665F
:10E190007573652020203D200045787420667573D6
:10E1A00065202020203D20004C6F636B2066757336
:10E1B000652020203D20004D617220203720323024
:10E1C000313300312E362E3800342E332E350056A2
:10E1D00023202020414444522020206F7020636F70
:10E1E00064652020202020696E73747275637469E1
:10E1F0006F6E2061646472202020496E74657272B3
:10E20000757074006E6F20766563746F7200726A49
:10E210006D702020006A6D70200057686174207056
:10E220006F72743A00506F7274206E6F7420737541
:10E2300070706F72746564004D7573742062652030
:10E2400061206C6574746572002000577269747483
:10E25000696E672045450052656164696E672045B7
:10E26000450045452065727220636E743D00504F35
:10E27000525400303D5A65726F2061646472003FF1
:10E280003D43505520737461747300403D454550C3
:10E29000524F4D207465737400423D426C696E6B41
:10E2A000204C454400453D44756D70204545505215
:10E2B0004F4D00463D44756D7020464C415348001B
:10E2C000483D48656C70004C3D4C69737420492F83
:10E2D0004F20506F72747300513D51756974005234
:10E2E0003D44756D702052414D00563D73686F7707
:10E2F00020696E7465727275707420566563746FF0
:10E30000727300593D506F727420626C696E6B00BD
:10E310002A0011241FBECFEFD1E2DEBFCDBF01E046
:10E320000CBF12E0A0E0B2E0EEE1FDEF03E00BBFB6
:10E3300002C007900D92A030B107D9F712E0A0E01B
:10E34000B2E001C01D92AE30B107E1F70F9460F367
:10E350000D948DFE01E20EBF0FEF0DBF11241FBE05
:10E360000D9460F30D9400F020E030E040ED57E0B4
:10E3700005C0FA013197F1F72F5F3F4F2817390792
:10E38000C0F308959C01260F311DC901A0E0B0E043
:10E390002F5F3F4FABBFFC018791882361F08093D3
:10E3A000C6008091C00086FFFCCF8091C0008064D1
:10E3B0008093C000EACF08958DE08093C6008091DD
:10E3C000C00086FFFCCF8091C00080648093C000B5
:10E3D0008AE08093C6008091C00086FFFCCF8091C8
:10E3E000C00080648093C00008950F94C2F10F9420
:10E3F000DCF10895FC019081992359F09093C600B7
:10E400008091C00086FFFCCF8091C0008064809323
:10E41000C0003196992379F70895282F982F929567
:10E420009F70892F805D8A3308F0895F8093C600D2
:10E430008091C00086FFFCCF8091C00080648093F3
:10E44000C000822F8F70982F905D9A3308F0995FEB
:10E450009093C6008091C00086FFFCCF8091C000E1
:10E4600080648093C00008959C01FB01853691056E
:10E470001CF46330710594F0C90164E670E00F94F8
:10E480002EFE605D7F4F6093C6008091C00086FFC6
:10E49000FCCF8091C00080648093C0002B30310598
:10E4A00014F43297B4F0C90164E670E00F942EFEC4
:10E4B0006AE070E00F942EFE605D7F4F6093C600AF
:10E4C0008091C00086FFFCCF8091C0008064809363
:10E4D000C000C9016AE070E00F942EFEC0968093E0
:10E4E000C6008091C00086FFFCCF8091C000806490
:10E4F0008093C00008951F93182F8EE692EE60E07F
:10E500000F94C2F11093C6008091C00086FFFCCF2B
:10E510008091C00080648093C0000F94DCF11F9153
:10E5200008952F923F924F925F926F927F928F92B7
:10E530009F92AF92BF92CF92DF92EF92FF920F9392
:10E540001F93DF93CF93CDB7DEB762970FB6F894E2
:10E55000DEBF0FBECDBF382E622ECA01DB015C01CB
:10E560006D01772420E2222E2E010894411C511CBB
:10E570008BC081E0A81680E0B80681E0C80680E084
:10E58000D80628F0C601AA27BB270F940DF2BB2797
:10E59000AD2D9C2D8B2D0F940DF28A2D0F940DF225
:10E5A0002092C6008091C00086FFFCCF8091C00001
:10E5B00080648093C0009DE29093C6008091C0006B
:10E5C00086FFFCCF8091C00080648093C0002092C1
:10E5D000C6008091C00086FFFCCF8091C00080649F
:10E5E0008093C00019828601750188249924A1E0D6
:10E5F0003A1651F03A1620F0B2E03B1661F409C029
:10E600000BBFF701779007C0C7010F9477FE782EF4
:10E6100002C0F7017080872D0F940DF22092C60082
:10E620008091C00086FFFCCF8091C0008064809301
:10E63000C000872D8052F401EF70F0708F3520F408
:10E64000E40DF51D708204C0E40DF51D8EE280839B
:10E650000894E11CF11C011D111D0894811C911CE2
:10E6600090E18916910409F0C2CF80E190E0A0E02A
:10E67000B0E0A80EB91ECA1EDB1E198AC2010F9493
:10E68000FAF10F94DCF16A94662009F072CF629679
:10E690000FB6F894DEBF0FBECDBFCF91DF911F91B3
:10E6A0000F91FF90EF90DF90CF90BF90AF909F9031
:10E6B0008F907F906F905F904F903F902F90089534
:10E6C0002F923F924F925F926F927F928F929F9282
:10E6D000AF92BF92CF92DF92EF92FF920F931F9370
:10E6E000DF93CF93CDB7DEB7CD53D1400FB6F894BB
:10E6F000DEBF0FBECDBF01E20EBF0FEF0DBF94B75F
:10E70000F894A89514BE80916000886180936000A1
:10E7100010926000789493FF05C0E0910002F091A0
:10E7200001021995279A2F9A8091C00082608093E8
:10E73000C00080E18093C40088E18093C1000000A4
:10E74000EE24FF24870144E0A42EB12CCC24DD2448
:10E7500024C0C5010197F1F70894E11CF11C011DCB
:10E76000111D21E2E2162EE4F20620E0020720E06D
:10E77000120718F031E0C32ED12CC801B70127ECE5
:10E780003BE140E050E00F9441FE611571058105C9
:10E79000910519F485B1805885B98091C00087FD35
:10E7A00003C0C114D104A9F2A6014F5F5F4FC25E3E
:10E7B000DE4F59834883CE51D140C25EDE4F8881FF
:10E7C0009981CE51D140019711F00D9410FEC05D9A
:10E7D000DE4F19821882C053D14060E0C15DDE4F28
:10E7E0001882CF52D14088249924C35DDE4F19820C
:10E7F0001882CD52D140C05EDE4F188219821A8233
:10E800001B82C052D140CE5CDE4F188219821A8220
:10E810001B82C253D140EE24FF2487010BBFF701B6
:10E8200007911691C45CDE4F19830883CC53D14005
:10E830000D940BFEC25EDE4F28813981CE51D1404E
:10E840002130310509F52091C600C25EDE4F1982E4
:10E850001882CE51D14022C02F5F3F4F4F4F5F4FA4
:10E86000213082E138078AE7480780E0580780F0C6
:10E87000C45CDE4FE881F981CC53D140EF5FFF4F9C
:10E8800019F0EE27FF27099420E030E040E050E047
:10E890008091C00087FFE0CF2091C600C35DDE4FAE
:10E8A00048815981CD52D1404F5F5F4FC35DDE4FEC
:10E8B00059834883CD52D140213209F063C64A3092
:10E8C000510508F05FC60894811C911C53E0851621
:10E8D000910409F059C600E010E018C081E280936D
:10E8E000C6008091C00086FFFCCF8091C00080648C
:10E8F0008093C0002F5F3F4F2931310579F70F9486
:10E90000DCF10F5F1F4F0530110519F020E030E0FA
:10E91000E5CF10920A0210920B0210920C02109294
:10E920000D02109206021092070210920802109235
:10E930000902109202021092030210920402109235
:10E9400005028FEE90EE60E00F94F5F180E191EE1C
:10E9500060E00F94C2F18091C00087FFFCCF9091DE
:10E96000C600903608F09F759032B8F09093C600BC
:10E970008091C00086FFFCCF8091C00080648093AE
:10E98000C000A0E2A093C6008091C00086FFFCCF2B
:10E990008091C00080648093C000983409F4D7C18E
:10E9A0009934B8F4923409F459C1933458F490333B
:10E9B00019F1903308F4E3C59F33A1F1903409F0C5
:10E9C000DEC5BDC0953409F470C1963409F0D7C5D1
:10E9D00098C1923509F42BC2933538F49C3409F46C
:10E9E000F5C1913509F0CBC518C2963509F445C279
:10E9F000993509F0C4C567C483E792EE62E00F94CD
:10EA0000F5F110920602109207021092080210927D
:10EA1000090210920A0210920B0210920C0210923C
:10EA20000D0213C18FE792EE62E00F94F5F18FEEC5
:10EA300090EE60E00F94F5F181E291EE60E00F94CA
:10EA4000C2F187EB91EE60E00F94F5F180E391EE77
:10EA500060E00F94C2F184EE90EE60E00F94F5F167
:10EA60008FE391EE60E00F94C2F186E090E061E008
:10EA700070E00F9434F20F94DCF18DE591EE60E0DC
:10EA80000F94C2F189EC91EE60E00F94F5F18EE401
:10EA900091EE60E00F94C2F183EC91EE60E00F9490
:10EAA000F5F18CE691EE60E00F94C2F18EE10F94E7
:10EAB0000DF288E90F940DF281E00F940DF20F949E
:10EAC000DCF18BE791EE60E00F94C2F119E0E0E039
:10EAD000F0E010935700E4918E2F0F940DF20F94F5
:10EAE000DCF18AE891EE60E00F94C2F1E3E0F0E03F
:10EAF00010935700E4918E2F0F940DF20F94DCF1D8
:10EB000089E991EE60E00F94C2F1E2E0F0E0109349
:10EB10005700E4918E2F0F940DF20F94DCF188EAE8
:10EB200091EE60E00F94C2F1E1E0F0E01093570045
:10EB30001491812F0F940DF20F94DCF107CF8BE825
:10EB400092EE62E00F94F5F18BE492EE60E00F94A8
:10EB5000F5F10F94DCF100E010E019C0C8016F2D51
:10EB60000F947FFEFF2031F489E492EE60E00F9471
:10EB7000C2F10BC0F092C6008091C00086FFFCCFAE
:10EB80008091C00080648093C0000F5F1F4FC80158
:10EB900081519F41A0E0B0E0ABBFFC01F790BAE229
:10EBA000FB1621F0E2E000301E07C1F60F94DCF105
:10EBB0000F94DCF187E592EE60E00F94F5F10F948D
:10EBC000DCF1CC24DD2400E010E01EC0C8010F946D
:10EBD00077FEF82E882331F489E492EE60E00F94FA
:10EBE000C2F10BC08093C6008091C00086FFFCCFAD
:10EBF0008091C00080648093C000FE1419F00894D6
:10EC0000C11CD11C0F5F1F4FC80181519F41A0E063
:10EC1000B0E0ABBFFC01E790FAE2EF1621F022E092
:10EC20000030120799F60F94DCF10F94DCF182E6C4
:10EC300092EE60E00F94C2F1C60161E070E00F94C3
:10EC400034F20F94DCF10F94DCF110920202109276
:10EC50000302109204021092050278CE89E992EE26
:10EC600062E00F94F5F1279A2F9A16C02F9880E052
:10EC700090E0E0EDF7E03197F1F7019684369105E9
:10EC8000C1F72F9A80E090E0E0EDF7E03197F1F7DF
:10EC9000019684369105C1F78091C00087FFE6CFC9
:10ECA0008091C00087FFFCCF64C485EA92EE62E0E9
:10ECB0000F94F5F140910202509103026091040219
:10ECC0007091050281E020E10F9491F2809102029F
:10ECD00090910302A0910402B091050280509F4FD1
:10ECE000AF4FBF4F8093020290930302A0930402A0
:10ECF000B093050280509041A040B04008F426CE69
:10ED0000A4CF83EB92EE62E00F94F5F140910602FE
:10ED100050910702609108027091090280E020E1A1
:10ED20000F9491F28091060290910702A09108023F
:10ED3000B091090280509F4FAF4FBF4F80930602A2
:10ED400090930702A0930802B0930902FFCD80ECD4
:10ED500092EE62E00F94F5F183E792EE60E00F949B
:10ED6000F5F18FE792EE60E00F94F5F18BE892EE0B
:10ED700060E00F94F5F189E992EE60E00F94F5F10F
:10ED800085EA92EE60E00F94F5F183EB92EE60E09D
:10ED90000F94F5F180EC92EE60E00F94F5F187ECC2
:10EDA00092EE60E00F94F5F188ED92EE60E00F9442
:10EDB000F5F18FED92EE60E00F94F5F18AEE92EEB0
:10EDC00060E00F94F5F183E093EEBDCD87EC92EE19
:10EDD00062E00F94F5F181E40F947BF282E40F94EA
:10EDE0007BF283E40F947BF284E40F947BF285E45E
:10EDF0000F947BF286E40F947BF287E40F947BF20E
:10EE000088E40F947BF28AE40F947BF28BE40F94F6
:10EE10007BF28CE40F947BF299CD88ED92EE62E068
:10EE20000F94F5F1772473948824992409C48FED05
:10EE300092EE62E00F94F5F140910A0250910B02BC
:10EE400060910C0270910D0282E020E10F9491F22A
:10EE500080910A0290910B02A0910C02B0910D02D8
:10EE600080509F4FAF4FBF4F80930A0290930B0289
:10EE7000A0930C02B0930D0269CD8AEE92EE62E08F
:10EE80000F94F5F184EE90EE60E00F94F5F18FECC5
:10EE900091EE60E00F94F5F1662477244301CC5D98
:10EEA000DE4F19821882C452D140D401C301B695F5
:10EEB000A79597958795CA5DDE4F88839983AA8326
:10EEC000BB83C652D140CC5DDE4FA881B981C4520C
:10EED000D1401196CC5DDE4FB983A883C452D14096
:10EEE000CD0162E070E00F9434F2B0E2B093C6005E
:10EEF0008091C00086FFFCCF8091C0008064809329
:10EF0000C000EDE2E093C6008091C00086FFFCCF18
:10EF10008091C00080648093C000F0E2F093C6004E
:10EF20008091C00086FFFCCF8091C00080648093F8
:10EF3000C000CA5DDE4FE880F9800A811B81C6529D
:10EF4000D140BB27A12F902F8F2D0F940DF2CA5DBA
:10EF5000DE4F8881C652D1400F940DF2B0E2FB2EF5
:10EF6000F092C6008091C00086FFFCCF8091C00067
:10EF700080648093C0000DE30093C6008091C000C0
:10EF800086FFFCCF8091C00080648093C00010E2B7
:10EF90001093C6008091C00086FFFCCF8091C00016
:10EFA00080648093C0008BBEF3012791C65DDE4F65
:10EFB0002883CA52D140A22EBB24CC24DD2408943D
:10EFC000611C711C811C911C8BBEF3018791282E42
:10EFD0003324442455240894611C711C811C911C09
:10EFE0008BBEF3013791C55DDE4F3883CB52D140E4
:10EFF0000894611C711C811C911C8BBEF30147910C
:10F00000C45DDE4F4883CC52D140ADEFEA2EAFEF66
:10F01000FA2EAFEF0A2FAFEF1A2F6E0C7F1C801E57
:10F02000911E142D032DF22CEE24EA0CFB1C0C1D5A
:10F030001D1D0F940DF220E22093C6008091C000A8
:10F0400086FFFCCF8091C00080648093C000C65DC5
:10F05000DE4F8881CA52D1400F940DF230E23093D6
:10F06000C6008091C00086FFFCCF8091C000806404
:10F070008093C000C45DDE4F8881CC52D1400F9494
:10F080000DF240E24093C6008091C00086FFFCCFA5
:10F090008091C00080648093C000C55DDE4F888190
:10F0A000CB52D1400F940DF250E25093C6008091A4
:10F0B000C00086FFFCCF8091C00080648093C000B8
:10F0C0008FEFE8168FEFF80680E0080780E018075A
:10F0D00031F484E092EE60E00F94C2F1DFC0D80119
:10F0E000C7018070907CA070B0708050904CA040A0
:10F0F000B040D1F52FEF3FE340E050E0E222F322B1
:10F1000004231523CA5DDE4FA880B980CA80DB8046
:10F11000C652D140AE0CBF1CC01ED11EAA0CBB1CD7
:10F12000CC1CDD1C8EE092EE60E00F94C2F1BB2798
:10F13000A12F902F8F2D0F940DF28E2D0F940DF285
:10F1400030E23093C6008091C00086FFFCCF8091F2
:10F15000C00080648093C0004EE34093C60080915D
:10F16000C00086FFFCCF87C08EE09EEFA0E0B0E03D
:10F17000E822F9220A231B239CE0E91694E9F90608
:10F1800090E0090790E0190709F088C0C45DDE4FE0
:10F19000A881CC52D140EA2EFF2400E010E0102FCD
:10F1A0000F2DFE2CEE24C55DDE4FB881CB52D14031
:10F1B000EB0EF11C011D111DD601C501817090706F
:10F1C000A070B070DC0199278827E80EF91E0A1F8D
:10F1D0001B1F20EF30E040E050E0A222B322C42207
:10F1E000D52241E1AA0CBB1CCC1CDD1C4A95D1F7F1
:10F1F000EA0CFB1C0C1D1D1D81E090E0A0E0B0E0BE
:10F20000282239224A225B2235E1220C331C441C7D
:10F21000551C3A95D1F7E20CF31C041D151D57013E
:10F220006801AA0CBB1CCC1CDD1C85E192EE60E0E1
:10F230000F94C2F1C801AA27BB270F940DF2BB2778
:10F24000A12F902F8F2D0F940DF28E2D0F940DF274
:10F2500090E29093C6008091C00086FFFCCF809121
:10F26000C00080648093C000AEE3A093C60080918C
:10F27000C00086FFFCCF8091C00080648093C000F6
:10F28000C601AA27BB270F940DF2BB27AD2D9C2DDD
:10F290008B2D0F940DF28A2D0F940DF20F94DCF14B
:10F2A000CC5DDE4FE881F981C452D140F99709F471
:10F2B0004DCBF4E0EF2EF12C012D112D6E0C7F1CA7
:10F2C000801E911EF2CD83E093EE62E00F94F5F183
:10F2D0008AE192EE60E00F94C2F18091C00087FF56
:10F2E000FCCF1091C6001F751093C6008091C0001E
:10F2F00086FFFCCF8091C00080648093C0000F9493
:10F30000DCF1812F81548A3108F036C1163409F4BA
:10F3100095C0173490F4133409F44EC0143430F40B
:10F320001134F1F0123409F01DC130C0143409F465
:10F3300059C0153409F016C16BC01A3409F4C4C0A1
:10F340001B3438F4173409F48FC0183409F00AC19B
:10F35000A1C01B3409F4D2C01C3409F003C1E8C0B9
:10F360008FEF81B90DC082B1809582B980E090E0C5
:10F37000E0EDF7E03197F1F70196883C9105C1F790
:10F380008091C00087FFEFCF12B8EFC08FEF84B934
:10F390000DC085B1809585B980E090E0E0EDF7E0A3
:10F3A0003197F1F70196883C9105C1F78091C00033
:10F3B00087FFEFCF15B8D9C08FEF87B90DC088B1DF
:10F3C000809588B980E090E0E0EDF7E03197F1F7C3
:10F3D0000196883C9105C1F78091C00087FFEFCF6F
:10F3E00018B8C3C08FEF8AB90DC08BB180958BB9A7
:10F3F00080E090E0E0EDF7E03197F1F70196883C8E
:10F400009105C1F78091C00087FFEFCF1BB8ADC059
:10F410008FEF8DB90DC08EB180958EB980E090E0F0
:10F42000E0EDF7E03197F1F70196883C9105C1F7DF
:10F430008091C00087FFEFCF1EB897C08FEF80BBD1
:10F440000DC081B3809581BB80E090E0E0EDF7E0F6
:10F450003197F1F70196883C9105C1F78091C00082
:10F4600087FFEFCF11BA81C08FEF83BB0DC084B38C
:10F47000809584BB80E090E0E0EDF7E03197F1F714
:10F480000196883C9105C1F78091C00087FFEFCFBE
:10F4900014BA6BC08FEF809301010FC080910201FD
:10F4A00080958093020180E090E0E0EDF7E03197F5
:10F4B000F1F70196883C9105C1F78091C00087FF64
:10F4C000EDCF1092020151C08FEF809304010FC065
:10F4D0008091050180958093050180E090E0E0ED4A
:10F4E000F7E03197F1F70196883C9105C1F78091DB
:10F4F000C00087FFEDCF1092050137C08FEF8093DA
:10F5000007010FC08091080180958093080180E079
:10F5100090E0E0EDF7E03197F1F70196883C910536
:10F52000C1F78091C00087FFEDCF109208011DC088
:10F530008FEF80930A010FC080910B01809580931B
:10F540000B0180E090E0E0EDF7E03197F1F70196F4
:10F55000883C9105C1F78091C00087FFEDCF1092E4
:10F560000B0103C085E292EEEEC98091C00087FFD7
:10F57000FCCF8091C600EAC988E392EEE4C98CE131
:10F5800091EEE1C988249924933011F1943028F444
:10F59000913089F09230B8F408C0953061F195301F
:10F5A000F0F0963009F048C043C02B3109F042C951
:10F5B00091E06BE13FC96227C15DDE4F2883CF52E6
:10F5C000D14092E037C9B22FA0E0622793E032C960
:10F5D000822F90E0A82BB92B622794E02BC92E3004
:10F5E00009F039C3622795E0C05DDE4F19821882A9
:10F5F000C053D1401FC9E1E0F0E0EC0FFD1FC05D3A
:10F60000DE4F08811981C053D140E00FF11F2083E4
:10F610000F5F1F4FC05DDE4F19830883C053D14079
:10F6200062270A171B0709F005C9D80196E002C92D
:10F63000261709F010C303C0973009F0FBC87724E0
:10F640009981933109F412C19431C8F4963009F4C8
:10F65000D8C0973050F4923009F406C1933009F4C1
:10F660006DC0913009F059C253C0913109F477C08F
:10F67000923108F0BBC0903109F04FC2F5C098310B
:10F6800009F487C0993150F4953109F4EFC09531F0
:10F6900008F4C6C1963109F040C2C2C19A3109F4DA
:10F6A0006CC09A3108F491C09B3109F45BC09D3164
:10F6B00009F033C29D81903359F48F81882311F46E
:10F6C0009EE11CC0813011F091E018C098E916C08D
:10F6D000892F807591F0903539F4E0E0F0E089E011
:10F6E0008093570094910AC0983539F4E3E0F0E034
:10F6F00089E080935700949101C090E01A821B82A8
:10F700008D818C831D829E831F8227E030E009C299
:10F710001A8288E08B8381E48C8386E58D8382E581
:10F720008E8389E48F8383E5888780E589878FE5E9
:10F730008A8782E38B872BE030E0F3C18A818139AD
:10F7400041F0823941F0803911F48FE005C080E04A
:10F7500003C082E001C08AE01A828B8344C0772410
:10F76000739482C08D81882311F48EE12CC0813086
:10F7700011F081E028C088E926C01A82E1E0F0E0BB
:10F7800089E08093570084918B831C8224E030E0D1
:10F79000C8C18B81803589F48C81883039F4E2E0EE
:10F7A000F0E089E08093570084910DC0E0E0F0E044
:10F7B00089E080935700849106C0E3E0F0E089E09F
:10F7C0008093570084911A82DFCF8D81836C99E0FA
:10F7D000E1E0F0E0082E90935700E89507B600FCB2
:10F7E000FDCF1A821B8223E030E09BC180EC8A832C
:10F7F000CE5CDE4F188219821A821B82C253D1401E
:10F800008EC18A8190E0A0E0B0E0582F44273327D2
:10F8100022278B8190E0A0E0B0E0DC0199278827C7
:10F82000282B392B4A2B5B2B8D8190E0A0E0B0E098
:10F83000282B392B4A2B5B2B8C8190E0A0E0B0E089
:10F84000BA2FA92F982F8827282B392B4A2B5B2BCF
:10F85000220F331F441F551FC05EDE4F288339839C
:10F860004A835B83C052D1401A8259C13A81C95C34
:10F87000DE4F3883C753D140CA5CDE4F1882C6536F
:10F88000D1408B81C82EDD24CA5CDE4F488159816E
:10F89000C653D140C42AD52A933109F082C0CE5C28
:10F8A000DE4F88819981AA81BB81C253D1408050AB
:10F8B000904CA340B04030F583E0CE5CDE4FE88052
:10F8C000F9800A811B81C253D140F70100935B008C
:10F8D00080935700E89507B600FCFDCFCE5CDE4F65
:10F8E000088119812A813B81C253D14000501F4FAA
:10F8F0002F4F3F4FCE5CDE4F088319832A833B8313
:10F90000C253D140C05EDE4F488159816A817B81FC
:10F91000C052D140DE011B9631E08C9111962C91A2
:10F9200011971296C75CDE4F2883C953D140C85C3B
:10F93000DE4F1882C853D14090E0C85CDE4FE881AA
:10F94000F981C853D1408E2B9F2B0C01FA01609393
:10F950005B0030935700E89511244E5F5F4F6F4F67
:10F960007F4F0EEFE02E0FEFF02ECE0CDF1CC114F8
:10F97000D10499F685E0C05EDE4F088119812A81A5
:10F980003B81C052D140F80120935B008093570027
:10F99000E89507B600FCFDCF81E180935700E8951C
:10F9A00035C0C05EDE4F88819981AA81BB81C0527B
:10F9B000D140B695A795979587957C018601ABE0D8
:10F9C000AA2EB12CAC0EBD1E0BC0D5016D915D01F0
:10F9D000C7010F947FFE0894E11CF11C01501040F8
:10F9E0000115110591F7A60160E070E0440F551F65
:10F9F000661F771FC05EDE4FE880F9800A811B8199
:10FA0000C052D1404E0D5F1D601F711F1A82C05E33
:10FA1000DE4F488359836A837B83C052D1407FC0C5
:10FA2000FA80C55CDE4FF882CB53D140C65CDE4F16
:10FA30001882CA53D1408B81C82EDD24C65CDE4FAC
:10FA400008811981CA53D140C02AD12A1A828981DA
:10FA5000BE016D5F7F4F843121F59601C05EDE4FA0
:10FA6000E880F9800A811B81C052D1400BBFF701A9
:10FA700087919691DB018C9311969C936E5F7F4FDB
:10FA8000D801C7010296A11DB11DC05EDE4F88835B
:10FA90009983AA83BB83C052D14022503040F1F6F3
:10FAA00036C0C05EDE4F288139814A815B81C052F9
:10FAB000D1400894C108D108760100E010E0089414
:10FAC000C11CD11C0894E11CF11C011D111DE20E8A
:10FAD000F31E041F151F21BDBB27A52F942F832FB5
:10FAE00082BD2F5F3F4F4F4F5F4FF89A80B5DB01CC
:10FAF0008D93BD012E153F054007510761F7C05E8C
:10FB0000DE4F288339834A835B83C052D1409601FC
:10FB10002D5F3F4FFB01108204C080EC8A8322E0FE
:10FB200030E08BE18093C6008091C00086FFFCCF5F
:10FB30008091C00080648093C000C15DDE4FF88179
:10FB4000CF52D140F093C6008091C00086FFFCCF19
:10FB50008091C00080648093C000432F3093C60022
:10FB60008091C00086FFFCCF8091C00080648093AC
:10FB7000C000922F2093C6008091C00086FFFCCF6A
:10FB80008091C00080648093C0008EE08093C600A6
:10FB90008091C00086FFFCCF8091C000806480937C
:10FBA000C00065E1C15DDE4FE880CF52D1406E25D7
:10FBB00069276427FE01319610C090819093C6009A
:10FBC0008091C00086FFFCCF31968091C000806498
:10FBD0008093C0006927215030402115310569F715
:10FBE0006093C6008091C00086FFFCCF8091C0006A
:10FBF00080648093C00085B1805885B9772081F4F6
:10FC0000C15DDE4F0881CF52D1400F5FC15DDE4F35
:10FC10000883CF52D14090E0A0E0B0E00D941AF4F8
:10FC200027982F9880E090E020ED37E0F901319798
:10FC3000F1F7019684369105C9F700008091C00064
:10FC40008D7F8093C00081E180935700E895EE2777
:10FC5000FF270994FFCF90E00D941AF497FB092E2B
:10FC600007260AD077FD04D02ED006D000201AF443
:10FC7000709561957F4F0895F6F7909581959F4F08
:10FC80000895A1E21A2EAA1BBB1BFD010DC0AA1FDD
:10FC9000BB1FEE1FFF1FA217B307E407F50720F0F5
:10FCA000A21BB30BE40BF50B661F771F881F991F70
:10FCB0001A9469F760957095809590959B01AC01B9
:10FCC000BD01CF010895AA1BBB1B51E107C0AA1FAC
:10FCD000BB1FA617B70710F0A61BB70B881F991FED
:10FCE0005A95A9F780959095BC01CD010895F99991
:10FCF000FECF92BD81BDF89A992780B50895262F31
:10FD0000F999FECF1FBA92BD81BD20BD0FB6F89400
:0EFD1000FA9AF99A0FBE01960895F894FFCF63
:040000033000E000E9
:00000001FF
