:1000000002C1000030C100002EC100002CC1000060
:100010002AC1000028C1000026C1000024C1000040
:1000200022C1000020C100001EC100001CC1000050
:100030001AC1000018C1000016C1000014C1000060
:1000400012C1000010C100000EC100000CC1000070
:100050000AC1000008C1000006C10000BBC50000C5
:1000600002C1000000C10000FEC00000FCC0000092
:10007000FAC00000F8C00000F6C00000F4C00000A4
:10008000F2C00000F0C00000EEC00000ECC00000B4
:10009000EAC00000E8C00000E6C00000E5C50000BE
:1000A000E2C00000E0C00000DEC00000DCC00000D4
:1000B000DAC00000D8C00000D6C00000D4C00000E4
:1000C000D2C00000D0C00000CEC00000CCC00000F4
:1000D000CAC00000C8C00000C6C00000C4C0000004
:1000E000C2C0000000002100240027002A002D00CB
:1000F0003000330001010000040107010A01000083
:100100002200250028002B002E00310034000201BF
:100110000000050108010B0100002000230026005B
:1001200029002C002F00320000010000030106010D
:10013000090105050505070508080808020202026D
:100140000A0A080804040404010101010101010173
:100150000303030303030303040707070C0C0C0C3E
:100160000C0C0C0C02020202060606060606060627
:100170000B0B0B0B0B0B0B0B0102102020080810B4
:100180002040102040800201020108040201010207
:1001900004081020408080402010080402018004E0
:1001A000020180402010080402010804020101023B
:1001B0000408102040800102040810204080000044
:1001C0000A0B02090C0D0E080703040100000000D1
:1001D000000000000000000000000000000000001F
:1001E00000000000000000000000121110000000DC
:1001F00000000000000000000000000000000000FF
:1002000000000000570711241FBECFEFD1E2DEBF70
:10021000CDBF00E00CBF12E0A0E0B2E0EEE1F8E1FB
:1002200000E00BBF02C007900D92AE35B107D9F7C1
:1002300023E0AEE5B2E001C01D92A634B207E1F7BB
:1002400011E0C3E0D1E000E006C021970109802F52
:10025000FE010E94050CC230D10780E00807A9F713
:1002600056D60C940D0CCCCE982F20911E0381E015
:10027000213208F043C08091FA028111FCCF8091B5
:100280001D0332E03093FA029093F9029FEF9093AE
:10029000F8021092F7022093F602ADEFB2E0E6ED1D
:1002A000F2E090E0291331C01092D5029091D5026E
:1002B000880F892B8093D5028091D402813049F533
:1002C0001092D4028091D5028093BB008091BC0033
:1002D00083FDF8CF85EC8093BC008091FA028230D8
:1002E000E1F38091F8028F3FB1F08091F802803203
:1002F000A1F08091F802803391F084E01092FC022A
:1003000010921E031092FB0208953D9131939F5F5E
:10031000C9CF85EEE0CF80E0F1CF82E0EFCF83E080
:10032000EDCF08950895AF92BF92CF92DF92EF92F2
:10033000FF920F931F93CF93DF936C017B018B018F
:10034000040F151FEB015E01AE18BF08C017D107DF
:1003500059F06991D601ED91FC910190F081E02D69
:10036000C6011995892B79F7C501DF91CF911F91AE
:100370000F91FF90EF90DF90CF90BF90AF900895D6
:100380008150823108F05AC0E82FF0E08827E4530A
:10039000FE4F8F4F0C94050CEC01F001DE01E401DF
:1003A000E8011E02F301F901FD01030207020B023D
:1003B000110215021E0219021F0223028091800001
:1003C0008F77809380000895809180008F7DF9CF92
:1003D00080918000877FF5CF84B58F7784BD0895A5
:1003E00084B58F7DFBCF8091B0008F778093B00074
:1003F00008958091B0008F7DF9CF809190008F7724
:10040000809390000895809190008F7DF9CF809126
:100410009000877FF5CF8091A0008F778093A00018
:1004200008958091A0008F7DF9CF8091A000877FF3
:10043000F5CF809120018F778093200108958091DE
:1004400020018F7DF9CF80912001877FF5CF1F9309
:10045000CF93DF93282F30E0F901E254FE4F8491CF
:10046000F901E858FE4FD491F901EE5CFE4FC491BA
:10047000CC23A1F0162F811183DFEC2FF0E0EE0FDB
:10048000FF1FE250FF4FA591B4918FB7F894EC9104
:10049000111108C0D095DE23DC938FBFDF91CF917F
:1004A0001F910895DE2BF8CFCF93DF9390E0FC01EE
:1004B000E858FE4F24918E5C9E4FFC018491882366
:1004C000D1F090E0880F991FFC01EC51FF4FA591EE
:1004D000B491FC01E250FF4FC591D49161110EC05F
:1004E0009FB7F8948C91E22FE0958E238C9328810E
:1004F000E223E8839FBFDF91CF9108958FB7F894EF
:10050000EC91E22BEC938FBFF6CF863308F0865345
:1005100020917B00982F9870277F922B90937B00DF
:100520008770806480937C0080917A0080648093DF
:100530007A0080917A0086FDFCCF809178009091BE
:10054000790008953FB7F8948091C6029091C70250
:10055000A091C802B091C90226B5A89B05C02F3F43
:1005600019F00196A11DB11D3FBFBA2FA92F982FD9
:100570008827BC01CD01620F711D811D911D42E0D4
:10058000660F771F881F991F4A95D1F708958F929C
:100590009F92AF92BF92CF92DF92EF92FF924B0168
:1005A0005C01D0DF6B017C01CDDF6C197D098E0908
:1005B0009F09683E734081059105B0F321E0821ADE
:1005C0009108A108B10888EEC80E83E0D81EE11C8E
:1005D000F11C81149104A104B10431F7FF90EF9054
:1005E000DF90CF90BF90AF909F908F90089585ED52
:1005F0008093BC008091BC0084FDFCCF1092FA0275
:10060000089520919E02260F3327331F2132310592
:10061000ECF42091FA02FC0190E080E0243069F0D3
:1006200082E00895A0919E022191AC0142585D4F55
:10063000A40FB52FB11D2C930196861798F38091C6
:100640009E02680F60939E0280E0089581E0089505
:100650000895E091CF028091CE02E81730F4F0E0E7
:10066000E25AFD4F808190E008958FEF9FEF08954B
:100670009091CF028091CE022FEF3FEF981748F470
:10068000E92FF0E0E25AFD4F208130E09F5F909328
:10069000CF02C90108958091CE029091CF02891BAB
:1006A000990B0895CF92DF92EF92FF920F931F93D1
:1006B000CF93DF937C01CB018A012091FB0222239F
:1006C00089F0EB016B01C40ED51ECC15DD0561F080
:1006D0006991D701ED91FC910190F081E02DC70166
:1006E0001995F3CF642F8DDFC801DF91CF911F9152
:1006F0000F91FF90EF90DF90CF900895CF93DF930D
:100700001F92CDB7DEB769832091FB022223F9F057
:1007100020911E03203258F021E030E0FC013383A9
:10072000228390E080E00F90DF91CF910895809137
:10073000FC02E82FF0E0E350FD4F998190838F5F3A
:100740008093FC0280931E0381E090E0ECCF61E097
:10075000CE01019656DFF8CFCF93C42FFC018081E4
:10076000806291E09093FB0280931D031092FC0243
:1007700010921E038FE193E0C1DF6C2F8FE193E0B5
:10078000BDDF81E0CF9170CD089590E080E00895C5
:10079000FC0101900020E9F73197AF01481B590B8C
:1007A000BC018BE293E0BFCDCF93DF93EC01888156
:1007B000806291E09093FB0280931D031092FC02F3
:1007C00010921E038FE193E099DF81E04DDD80916F
:1007D000FA028111FCCF888191E09093FA02909304
:1007E000F9022FEF2093F8021092F7021092F6020E
:1007F0009093D5029091D5028062880F892B8093C7
:10080000D5028091D402813049F51092D4028091B2
:10081000D5028093BB008091BC0083FDF8CF85ECAE
:100820008093BC008091FA028130E1F38091F7025D
:1008300091E0811102C09091F702A6EDB2E0EEE5E1
:10084000F2E080E089130CC01092CF028093CE02B8
:100850008FE193E00DDFDF91CF91089585EEE0CF3A
:100860002D9121938F5FEECF1F93CF93DF93EC01F8
:10087000162F60E099DF41E050E001C0440F1A9567
:10088000EAF74095482360E0CE01DF91CF911F91B8
:1008900063CFFC01962F818D8F3F29F0683048F49B
:1008A000CF014A96E1CF85898F3F19F461E0892F06
:1008B000FBCD0895EF92FF920F931F93CF93DF9399
:1008C000EC01162F042F898D8F3FE1F0683008F07E
:1008D0004CC06A9669E0CE0167DF41E050E001C09C
:1008E000440F1A95EAF7013051F4482B69E0CE0124
:1008F000DF91CF911F910F91FF90EF902DCF4095F9
:100900004823F4CF8D898F3F69F1288D81E090E0F5
:1009100001C0880F6A95EAF7413009F5822B888F6C
:1009200060E08F8994DD088DFD88EE8818E0602FE7
:10093000661F6627661F8E2D8ADD000F61E08F2DF2
:1009400086DD60E08F2D83DD115089F761E08F89AE
:10095000DF91CF911F910F91FF90EF9078CD80950F
:100960008223DDCF642F812FF3CFDF91CF911F91B1
:100970000F91FF90EF900895CF93DF93EC0140E04B
:100980006E8198DF41E06E81CE0194DF40E06E81A0
:10099000CE0190DF8BE891E00197F1F7DF91CF91E5
:1009A0000895CF92DF92EF92FF920F931F93CF9310
:1009B000DF938C01FC01818DE8012796C62ED12C96
:1009C000F12CE12C8F3F09F45BC07801FAE1EF0EC6
:1009D000F11C69E0C701E8DEFE0170E060E0C1E003
:1009E000D0E091919E01092E01C0220F0A94EAF7EE
:1009F00020958223A601062E02C0559547950A949C
:100A0000E2F74170552701C0440F9A95EAF7842B0D
:100A10006F5F7F4F6430710521F7F80196819E0169
:100A200001C0220F9A95EAF7D22ED094D8224D2DEC
:100A300069E0C70191DEF8018681AE0101C0440F73
:100A40008A95EAF7D42A4D2D69E0C70185DEF801C1
:100A5000868101C0CC0F8A95EAF7C0954C2F4D21B5
:100A600069E0C70179DE8BE891E00197F1F7DF914A
:100A7000CF911F910F91FF90EF90DF90CF9008954D
:100A80006991C80106DFA6010E2C02C05595479555
:100A90000A94E2F74170FE0131976081C8010ADFD4
:100AA000FFEFEF1AFF0A84E0E816F10449F7C801E6
:100AB000DF91CF911F910F91FF90EF90DF90CF903A
:100AC0005BCFCF92DF92EF92FF920F931F93CF9362
:100AD000DF93EC01F62E6C81EDDE6D816F3F19F036
:100AE00040E0CE01E7DE0F2D10E08F8584FF29C0A6
:100AF0006E0187E0C80ED11CF12CE12CF60161914A
:100B00006F01CE01C6DEA8010E2C02C05595479597
:100B10000A94E2F74170F60131976081CE01CADE96
:100B2000FFEFEF1AFF0A88E0E816F10439F7CE016B
:100B3000DF91CF911F910F91FF90EF90DF90CF90B9
:100B40001BCFB80184E0759567958A95E1F7CE01D2
:100B500028DF6F2DCE01DF91CF911F910F91FF9074
:100B6000EF90DF90CF901DCF40E0682F8BE293E0B5
:100B7000A8CFCF93DF9300D000D01F921F92CDB7A4
:100B8000DEB798E0E0E0F2E0DE01119601900D9210
:100B90009A95E1F790913E03961708F46FEF70E095
:100BA000660F771F21E030E02C0F3D1F620F731F8F
:100BB000FB019081890F806828960FB6F894DEBFFC
:100BC0000FBECDBFDF91CF91CFCF41E07ADF81E083
:100BD00090E008951F920F920FB60F9211242F9359
:100BE0003F938F939F93AF93BF938091C202909155
:100BF000C302A091C402B091C5023091C10223E0AA
:100C0000230F2D3758F50196A11DB11D2093C10268
:100C10008093C2029093C302A093C402B093C50212
:100C20008091C6029091C702A091C802B091C902FA
:100C30000196A11DB11D8093C6029093C702A09397
:100C4000C802B093C902BF91AF919F918F913F911C
:100C50002F910F900FBE0F901F90189526E8230F2D
:100C60000296A11DB11DD2CF1F920F920FB60F9207
:100C700011240BB60F922F933F934F935F936F9373
:100C80007F938F939F93AF93BF93EF93FF93809145
:100C9000B900887F803609F44CC008F03FC0883224
:100CA00009F4A8C028F5803109F49CC0C8F4882351
:100CB00009F4FAC0883009F495C0FF91EF91BF9113
:100CC000AF919F918F917F916F915F914F913F91E4
:100CD0002F910F900BBE0F900FBE0F901F90189585
:100CE000883109F487C0803241F78093F80214C03C
:100CF000803409F49CC040F48033B9F38833E9F6BA
:100D00008093F80285ECAFC0803509F484C0883543
:100D100009F495C0883489F66ADCCFCF883909F4A4
:100D20008CC038F5883729F050F4883611F08037B8
:100D300021F683E08093FA021092C00257C08838EF
:100D400009F47BC0803919F0803809F0B6CF809162
:100D5000C002803208F071C0E091C00281E08E0FC5
:100D60008093C0028091BB00F0E0E056FD4F80838D
:100D70003DC0803B39F0E0F4803A09F479C0883A0C
:100D800009F09BCF84E08093FA0210929F021092A8
:100D90009E02E091CC02F091CD02199580919E02C5
:100DA00081110FC081E080939E0210927E0209C0E3
:100DB000803C09F4A7CF883C09F4A4CF883B09F014
:100DC0007CCFE0919F0281E08E0F80939F02F0E044
:100DD000E258FD4F80818093BB0090919F028091EB
:100DE0009E0229C08091D5028093BB0085EC809340
:100DF000BC0063CF9091F7028091F602981758F5E6
:100E0000E091F70281E08E0F8093F702F0E0EA5262
:100E1000FD4F8081E9CFE091F70281E08E0F809352
:100E2000F7028091BB00F0E0EA52FD4F8083909181
:100E3000F7028091F6029817C8F285E8D8CFE091C2
:100E4000F70281E08E0F8093F7028091BB00F0E003
:100E5000EA52FD4F80838091F90281115DCF81E0DC
:100E60008093D40284EA8093BC001092FA0225CFCA
:100E700085EC8093BC001092FA028091C00280320F
:100E800030F4E091C002F0E0E056FD4F1082609136
:100E9000C00270E0E091CA02F091CB0280EA92E0D9
:100EA00019951092C00209CF1092F80235CFEFE1E8
:100EB000F3E01382128288EE93E0A0E0B0E0848336
:100EC0009583A683B7838CE092E091838083EBE2E5
:100ED000F3E0138212828EE192E09183808387E0B7
:100EE00084838FEF858396E0968395E0978394E0E3
:100EF000908793E0918792E09287138614861586F7
:100F00001686818F878B868B858B17860895CF9366
:100F1000DF93CDB7DEB7A1970FB6F894DEBF0FBE53
:100F2000CDBF789484B5826084BD84B5816084BD72
:100F300085B5826085BD85B5816085BD80916E0077
:100F4000816080936E0010928100809181008260A8
:100F500080938100809181008160809381008091E5
:100F600080008160809380008091B10084608093D4
:100F7000B1008091B00081608093B00080919100B9
:100F800082608093910080919100816080939100B4
:100F9000809190008160809390008091A100826098
:100FA0008093A1008091A10081608093A100809135
:100FB000A00081608093A0008091210182608093D5
:100FC0002101809121018160809321018091200184
:100FD00081608093200180917A00846080937A0000
:100FE00080917A00826080937A0080917A0081609B
:100FF00080937A0080917A00806880937A001092C2
:10100000C10060E088E350DA809144038F3F09F427
:1010100007C18770809345031092CF021092CE02D1
:101020001092FC0210921E031092FA0211E010932B
:10103000F9021092D40261E084E109DA61E085E10D
:1010400006DA8091B9008E7F8093B9008091B90053
:101050008D7F8093B90088E48093B80085E4809305
:10106000BC0081E991E09093CD028093CC0282E9AB
:1010700091E09093CB028093CA02809145038062F5
:101080001093FB0280931D031092FC0210921E032A
:1010900060E08FE193E032DB6FEF8FE193E02EDBD6
:1010A00060E08FE193E02ADB60E08FE193E026DBF4
:1010B00060E08FE193E022DB60E08FE193E01EDBF4
:1010C00060E08FE193E01ADB60E08FE193E016DBF4
:1010D00060E08FE193E012DB60E08FE193E00EDBF4
:1010E00060E08FE193E00ADB81E0BED867E085E451
:1010F00093E0BADB69E085E493E056DB482F406873
:1011000069E085E493E028DB02E313E0B6E3EB2E2D
:10111000B3E0FB2EF80161918F018BE293E0B9DB24
:10112000E016F106B9F760912F03683018F485E4F2
:1011300093E09ADB60913103683018F485E493E022
:1011400093DB80913A03886080933A0382E0809336
:101150003E0310923F038BE39DE00197F1F740E0DF
:1011600060912F038BE293E0A5DB40E060913103B7
:101170008BE293E09FDB609130036F3F21F040E012
:101180008BE293E097DB80913A0384FD6BC063E0D0
:101190008BE293E006DC0BE416E4C8010197F1F75B
:1011A00063E08BE293E0FDDBC8010197F1F763E0B8
:1011B0008BE293E0F6DB83E592E00197F1F762E0E2
:1011C0008BE293E0EEDB80913A038062CDDC84E039
:1011D00080933B038CE0C8DC81E0C6DC8BE39FE1BD
:1011E0000197F1F782E080933C0386E0BDDC60E08C
:1011F00081E0BFDC86E292E0CBDA86E386D9909389
:10120000D3028093D2028091D2029091D30261E006
:10121000892B09F43AC081E0ACDC84E392E0ECCFA6
:101220008091400361E08F3F79F0809141033CD988
:1012300061E08091400338D961E08091420334D964
:1012400080E8809343037DCF80912F032DD9809137
:1012500030038F3F11F061E027D961E080913103C5
:1012600023D96FCF806280DC8BE496E40197F1F79D
:1012700080913A03806278DC83E592E00197F1F790
:1012800080913A03806270DC9ECF80E072DC83E460
:1012900092E07EDA61E08DE0DAD868EE73E080E01B
:1012A00090E075D960E08DE0D2D856EF252E51E060
:1012B000352E60EB862E61E0962E7AE6E72E71E001
:1012C000F72EE8ECAE2EE1E0BE2EFAE04F2E512CC8
:1012D000612C712CA0E0CA2EA0E0DA2EF1018491DD
:1012E000F4011491F7010491002371F0811148D8A1
:1012F000E02FF0E0EE0FFF1FE85EFE4FA591B491E6
:101300008C91182381E009F480E061E080FD6AC0DF
:101310008DE09DD864E670E080E090E038D960E030
:101320008DE095D864E670E080E090E030D986E307
:10133000ECD89093D3028093D2028C011695079536
:101340001695079561E08AE0AFD80115110509F0FF
:1013500058C060E08AE07BD88091D2029091D3029D
:1013600096958795969587959093D1028093D00214
:1013700061E080E0FEDB83E592E00ADA61E086E08E
:10138000F8DB6091D0027091D10290E080E08DD1C5
:1013900023E333E343E250E4F4D05BD17093D10212
:1013A0006093D0029B0150E040E019A28E010F5DD6
:1013B0001F4FCA01B901A301920105D2605DF80176
:1013C00062938F01211531054105510591F7309741
:1013D00011F0CF01DDD9C114D10409F47FCF0E94EF
:1013E00000007CCF8DE033D864EF71E080E090E0C6
:1013F000CED860E08DE02BD864EF71E080E090E023
:1014000095CF0F3F110511F461E0A4CFF501849150
:10141000EFEFE80FE23108F0AFC0F0E08827ED5EB3
:10142000F54F8F4FF2C1250A2A0A2F0A390A430ABB
:10143000BC0A4D0A550A5D0A670A710A7B0A8A0AC4
:10144000940ABC0A9E0AA80AB20A84B5806884BDC0
:1014500007BD82CF84B5806284BD08BD7DCF8091F9
:10146000800080688093800010938900009388003A
:1014700073CF8091800080628093800010938B00F6
:1014800000938A0069CF80918000886080938000FB
:1014900010938D0000938C005FCF8091B000806826
:1014A0008093B0000093B30057CF8091B00080626A
:1014B0008093B0000093B4004FCF8091900080687B
:1014C00080939000109399000093980045CF8091ED
:1014D000900080628093900010939B0000939A008C
:1014E0003BCF8091900088608093900010939D0086
:1014F00000939C0031CF8091A00080688093A00071
:101500008091A0008F7B8093A0001093A90000938E
:10151000A80022CF8091A00080628093A000109349
:10152000AB000093AA0018CF8091A0008860809340
:10153000A0001093AD000093AC000ECF809120016D
:10154000806880932001109329010093280104CF23
:101550008091200180628093200110932B010093E1
:101560002A01FACE80912001886080932001109397
:101570002D0100932C01F0CE003811050CF044CF62
:10158000E8CE0CD0E6C0DED040F0D5D030F021F46B
:101590005F3F19F0C7C0511110C1CAC0EBD098F31A
:1015A0009923C9F35523B1F3951B550BBB27AA27E4
:1015B00062177307840738F09F5F5F4F220F331F56
:1015C000441FAA1FA9F333D00E2E3AF0E0E830D022
:1015D00091505040E695001CCAF729D0FE2F27D025
:1015E000660F771F881FBB1F261737074807AB07F3
:1015F000B0E809F0BB0B802DBF01FF2793585F4F68
:101600002AF09E3F510568F08DC0D7C05F3FECF3D4
:10161000983EDCF3869577956795B795F7959F5F2C
:10162000C9F7880F911D9695879597F90895E1E080
:10163000660F771F881FBB1F621773078407BA07DF
:1016400020F0621B730B840BBA0BEE1F88F7E0953A
:10165000089598D088F09F5790F0B92F9927B751E7
:10166000A0F0D1F0660F771F881F991F1AF0BA9566
:10167000C9F712C0B13081F09FD0B1E008959CC08D
:10168000672F782F8827B85F39F0B93FCCF386955C
:1016900077956795B395D9F73EF4909580957095B9
:1016A00061957F4F8F4F9F4F0895E89409C097FB36
:1016B0003EF490958095709561957F4F8F4F9F4F29
:1016C0009923A9F0F92F96E9BB279395F69587956D
:1016D00077956795B795F111F8CFFAF4BB0F11F430
:1016E00060FF1BC06F5F7F4F8F4F9F4F16C08823D7
:1016F00011F096E911C0772321F09EE8872F762F0D
:1017000005C0662371F096E8862F70E060E02AF04D
:101710009A95660F771F881FDAF7880F9695879539
:1017200097F9089597F99F6780E870E060E0089561
:101730009FEF80EC089500240A94161617061806E9
:101740000906089500240A941216130614060506C5
:101750000895092E0394000C11F4882352F0BB0F56
:1017600040F4BF2B11F460FF04C06F5F7F4F8F4FB9
:101770009F4F089557FD9058440F551F59F05F3FF4
:1017800071F04795880F97FB991F61F09F3F79F0A3
:1017900087950895121613061406551FF2CF469525
:1017A000F1DF08C0161617061806991FF1CF8695A7
:1017B0007105610508940895E894BB27662777278B
:1017C000CB0197F90895A1E21A2EAA1BBB1BFD01BC
:1017D0000DC0AA1FBB1FEE1FFF1FA217B307E40710
:1017E000F50720F0A21BB30BE40BF50B661F771F68
:1017F000881F991F1A9469F7609570958095909548
:101800009B01AC01BD01CF010895EE0FFF1F881FA2
:0E1810008BBF0790F691E02D1994F894FFCF4E
:10181E000000400014005400000000007E0352033C
:10182E00C50328034B033803290300000000E50518
:10183E009301C503C40352455350495241444F527C
:10184E0020563100524547554C452049504D2041B8
:10185E002030002020202020202020202549504DFF
:0E186E0020200020202020202020202000000C
:00000001FF
